{
  "_format": "hh-sol-artifact-1",
  "contractName": "Review",
  "sourceName": "contracts/Review.sol",
  "abi": [
    {
      "inputs": [
        {
          "internalType": "address payable",
          "name": "_jobPlatformAddress",
          "type": "address"
        }
      ],
      "stateMutability": "nonpayable",
      "type": "constructor"
    },
    {
      "anonymous": false,
      "inputs": [
        {
          "indexed": true,
          "internalType": "address",
          "name": "reviewer",
          "type": "address"
        },
        {
          "indexed": true,
          "internalType": "address",
          "name": "reviewee",
          "type": "address"
        },
        {
          "indexed": false,
          "internalType": "uint8",
          "name": "rating",
          "type": "uint8"
        },
        {
          "indexed": false,
          "internalType": "string",
          "name": "comments",
          "type": "string"
        },
        {
          "indexed": false,
          "internalType": "uint256",
          "name": "jobId",
          "type": "uint256"
        }
      ],
      "name": "ReviewSubmitted",
      "type": "event"
    },
    {
      "inputs": [
        {
          "internalType": "address",
          "name": "reviewer",
          "type": "address"
        },
        {
          "internalType": "address",
          "name": "reviewee",
          "type": "address"
        }
      ],
      "name": "getReview",
      "outputs": [
        {
          "components": [
            {
              "internalType": "address",
              "name": "reviewer",
              "type": "address"
            },
            {
              "internalType": "address",
              "name": "reviewee",
              "type": "address"
            },
            {
              "internalType": "string",
              "name": "comments",
              "type": "string"
            },
            {
              "internalType": "uint8",
              "name": "rating",
              "type": "uint8"
            },
            {
              "internalType": "uint256",
              "name": "timestamp",
              "type": "uint256"
            }
          ],
          "internalType": "struct Review.ReviewStruct",
          "name": "",
          "type": "tuple"
        }
      ],
      "stateMutability": "view",
      "type": "function"
    },
    {
      "inputs": [],
      "name": "jobPlatform",
      "outputs": [
        {
          "internalType": "contract JobPlatform",
          "name": "",
          "type": "address"
        }
      ],
      "stateMutability": "view",
      "type": "function"
    },
    {
      "inputs": [
        {
          "internalType": "uint256",
          "name": "jobId",
          "type": "uint256"
        },
        {
          "internalType": "address",
          "name": "reviewee",
          "type": "address"
        },
        {
          "internalType": "uint8",
          "name": "rating",
          "type": "uint8"
        },
        {
          "internalType": "string",
          "name": "comments",
          "type": "string"
        }
      ],
      "name": "leaveReview",
      "outputs": [],
      "stateMutability": "nonpayable",
      "type": "function"
    },
    {
      "inputs": [
        {
          "internalType": "address",
          "name": "",
          "type": "address"
        },
        {
          "internalType": "address",
          "name": "",
          "type": "address"
        }
      ],
      "name": "reviews",
      "outputs": [
        {
          "internalType": "address",
          "name": "reviewer",
          "type": "address"
        },
        {
          "internalType": "address",
          "name": "reviewee",
          "type": "address"
        },
        {
          "internalType": "string",
          "name": "comments",
          "type": "string"
        },
        {
          "internalType": "uint8",
          "name": "rating",
          "type": "uint8"
        },
        {
          "internalType": "uint256",
          "name": "timestamp",
          "type": "uint256"
        }
      ],
      "stateMutability": "view",
      "type": "function"
    }
  ],
  "bytecode": "0x608060405234801561001057600080fd5b50604051611819380380611819833981810160405281019061003291906100db565b806000806101000a81548173ffffffffffffffffffffffffffffffffffffffff021916908373ffffffffffffffffffffffffffffffffffffffff16021790555050610108565b600080fd5b600073ffffffffffffffffffffffffffffffffffffffff82169050919050565b60006100a88261007d565b9050919050565b6100b88161009d565b81146100c357600080fd5b50565b6000815190506100d5816100af565b92915050565b6000602082840312156100f1576100f0610078565b5b60006100ff848285016100c6565b91505092915050565b611702806101176000396000f3fe608060405234801561001057600080fd5b506004361061004c5760003560e01c80635a4e8bc81461005157806377d03d1f1461006d578063d07015f21461008b578063e9daa70a146100bf575b600080fd5b61006b60048036038101906100669190610bf5565b6100ef565b005b6100756105b7565b6040516100829190610cd7565b60405180910390f35b6100a560048036038101906100a09190610cf2565b6105db565b6040516100b6959493929190610dde565b60405180910390f35b6100d960048036038101906100d49190610cf2565b6106f3565b6040516100e69190610f25565b60405180910390f35b838360008060008054906101000a900473ffffffffffffffffffffffffffffffffffffffff1673ffffffffffffffffffffffffffffffffffffffff1663bf22c457856040518263ffffffff1660e01b815260040161014d9190610f47565b600060405180830381865afa15801561016a573d6000803e3d6000fd5b505050506040513d6000823e3d601f19601f8201168201806040525081019061019391906110c4565b945094505050508173ffffffffffffffffffffffffffffffffffffffff163373ffffffffffffffffffffffffffffffffffffffff161480156101db57506101da81846108ef565b5b8061022357508173ffffffffffffffffffffffffffffffffffffffff168373ffffffffffffffffffffffffffffffffffffffff16148015610222575061022181336108ef565b5b5b806102c6575060008054906101000a900473ffffffffffffffffffffffffffffffffffffffff1673ffffffffffffffffffffffffffffffffffffffff16637809773685336040518363ffffffff1660e01b8152600401610284929190611193565b602060405180830381865afa1580156102a1573d6000803e3d6000fd5b505050506040513d601f19601f820116820180604052508101906102c591906111f4565b5b610305576040517f08c379a00000000000000000000000000000000000000000000000000000000081526004016102fc90611293565b60405180910390fd5b60018660ff161015801561031d575060058660ff1611155b61035c576040517f08c379a0000000000000000000000000000000000000000000000000000000008152600401610353906112ff565b60405180910390fd5b60008551116103a0576040517f08c379a00000000000000000000000000000000000000000000000000000000081526004016103979061136b565b60405180910390fd5b6040518060a001604052803373ffffffffffffffffffffffffffffffffffffffff1681526020018873ffffffffffffffffffffffffffffffffffffffff1681526020018681526020018760ff16815260200142815250600160003373ffffffffffffffffffffffffffffffffffffffff1673ffffffffffffffffffffffffffffffffffffffff16815260200190815260200160002060008973ffffffffffffffffffffffffffffffffffffffff1673ffffffffffffffffffffffffffffffffffffffff16815260200190815260200160002060008201518160000160006101000a81548173ffffffffffffffffffffffffffffffffffffffff021916908373ffffffffffffffffffffffffffffffffffffffff16021790555060208201518160010160006101000a81548173ffffffffffffffffffffffffffffffffffffffff021916908373ffffffffffffffffffffffffffffffffffffffff1602179055506040820151816002019081610515919061158d565b5060608201518160030160006101000a81548160ff021916908360ff160217905550608082015181600401559050508673ffffffffffffffffffffffffffffffffffffffff163373ffffffffffffffffffffffffffffffffffffffff167f47ca778421abe1fb70a6333ce10aa843b8408505b49bf3a80c27a8e301039f8a88888c6040516105a59392919061165f565b60405180910390a35050505050505050565b60008054906101000a900473ffffffffffffffffffffffffffffffffffffffff1681565b6001602052816000526040600020602052806000526040600020600091509150508060000160009054906101000a900473ffffffffffffffffffffffffffffffffffffffff16908060010160009054906101000a900473ffffffffffffffffffffffffffffffffffffffff1690806002018054610657906113ba565b80601f0160208091040260200160405190810160405280929190818152602001828054610683906113ba565b80156106d05780601f106106a5576101008083540402835291602001916106d0565b820191906000526020600020905b8154815290600101906020018083116106b357829003601f168201915b5050505050908060030160009054906101000a900460ff16908060040154905085565b6106fb610970565b600160008473ffffffffffffffffffffffffffffffffffffffff1673ffffffffffffffffffffffffffffffffffffffff16815260200190815260200160002060008373ffffffffffffffffffffffffffffffffffffffff1673ffffffffffffffffffffffffffffffffffffffff1681526020019081526020016000206040518060a00160405290816000820160009054906101000a900473ffffffffffffffffffffffffffffffffffffffff1673ffffffffffffffffffffffffffffffffffffffff1673ffffffffffffffffffffffffffffffffffffffff1681526020016001820160009054906101000a900473ffffffffffffffffffffffffffffffffffffffff1673ffffffffffffffffffffffffffffffffffffffff1673ffffffffffffffffffffffffffffffffffffffff16815260200160028201805461083e906113ba565b80601f016020809104026020016040519081016040528092919081815260200182805461086a906113ba565b80156108b75780601f1061088c576101008083540402835291602001916108b7565b820191906000526020600020905b81548152906001019060200180831161089a57829003601f168201915b505050505081526020016003820160009054906101000a900460ff1660ff1660ff168152602001600482015481525050905092915050565b600080600090505b8351811015610964578273ffffffffffffffffffffffffffffffffffffffff1684828151811061092a5761092961169d565b5b602002602001015173ffffffffffffffffffffffffffffffffffffffff160361095757600191505061096a565b80806001019150506108f7565b50600090505b92915050565b6040518060a00160405280600073ffffffffffffffffffffffffffffffffffffffff168152602001600073ffffffffffffffffffffffffffffffffffffffff16815260200160608152602001600060ff168152602001600081525090565b6000604051905090565b600080fd5b600080fd5b6000819050919050565b6109f5816109e2565b8114610a0057600080fd5b50565b600081359050610a12816109ec565b92915050565b600073ffffffffffffffffffffffffffffffffffffffff82169050919050565b6000610a4382610a18565b9050919050565b610a5381610a38565b8114610a5e57600080fd5b50565b600081359050610a7081610a4a565b92915050565b600060ff82169050919050565b610a8c81610a76565b8114610a9757600080fd5b50565b600081359050610aa981610a83565b92915050565b600080fd5b600080fd5b6000601f19601f8301169050919050565b7f4e487b7100000000000000000000000000000000000000000000000000000000600052604160045260246000fd5b610b0282610ab9565b810181811067ffffffffffffffff82111715610b2157610b20610aca565b5b80604052505050565b6000610b346109ce565b9050610b408282610af9565b919050565b600067ffffffffffffffff821115610b6057610b5f610aca565b5b610b6982610ab9565b9050602081019050919050565b82818337600083830152505050565b6000610b98610b9384610b45565b610b2a565b905082815260208101848484011115610bb457610bb3610ab4565b5b610bbf848285610b76565b509392505050565b600082601f830112610bdc57610bdb610aaf565b5b8135610bec848260208601610b85565b91505092915050565b60008060008060808587031215610c0f57610c0e6109d8565b5b6000610c1d87828801610a03565b9450506020610c2e87828801610a61565b9350506040610c3f87828801610a9a565b925050606085013567ffffffffffffffff811115610c6057610c5f6109dd565b5b610c6c87828801610bc7565b91505092959194509250565b6000819050919050565b6000610c9d610c98610c9384610a18565b610c78565b610a18565b9050919050565b6000610caf82610c82565b9050919050565b6000610cc182610ca4565b9050919050565b610cd181610cb6565b82525050565b6000602082019050610cec6000830184610cc8565b92915050565b60008060408385031215610d0957610d086109d8565b5b6000610d1785828601610a61565b9250506020610d2885828601610a61565b9150509250929050565b610d3b81610a38565b82525050565b600081519050919050565b600082825260208201905092915050565b60005b83811015610d7b578082015181840152602081019050610d60565b60008484015250505050565b6000610d9282610d41565b610d9c8185610d4c565b9350610dac818560208601610d5d565b610db581610ab9565b840191505092915050565b610dc981610a76565b82525050565b610dd8816109e2565b82525050565b600060a082019050610df36000830188610d32565b610e006020830187610d32565b8181036040830152610e128186610d87565b9050610e216060830185610dc0565b610e2e6080830184610dcf565b9695505050505050565b610e4181610a38565b82525050565b600082825260208201905092915050565b6000610e6382610d41565b610e6d8185610e47565b9350610e7d818560208601610d5d565b610e8681610ab9565b840191505092915050565b610e9a81610a76565b82525050565b610ea9816109e2565b82525050565b600060a083016000830151610ec76000860182610e38565b506020830151610eda6020860182610e38565b5060408301518482036040860152610ef28282610e58565b9150506060830151610f076060860182610e91565b506080830151610f1a6080860182610ea0565b508091505092915050565b60006020820190508181036000830152610f3f8184610eaf565b905092915050565b6000602082019050610f5c6000830184610dcf565b92915050565b6000610f75610f7084610b45565b610b2a565b905082815260208101848484011115610f9157610f90610ab4565b5b610f9c848285610d5d565b509392505050565b600082601f830112610fb957610fb8610aaf565b5b8151610fc9848260208601610f62565b91505092915050565b600081519050610fe1816109ec565b92915050565b600081519050610ff681610a4a565b92915050565b600067ffffffffffffffff82111561101757611016610aca565b5b602082029050602081019050919050565b600080fd5b600061104061103b84610ffc565b610b2a565b9050808382526020820190506020840283018581111561106357611062611028565b5b835b8181101561108c57806110788882610fe7565b845260208401935050602081019050611065565b5050509392505050565b600082601f8301126110ab576110aa610aaf565b5b81516110bb84826020860161102d565b91505092915050565b600080600080600060a086880312156110e0576110df6109d8565b5b600086015167ffffffffffffffff8111156110fe576110fd6109dd565b5b61110a88828901610fa4565b955050602086015167ffffffffffffffff81111561112b5761112a6109dd565b5b61113788828901610fa4565b945050604061114888828901610fd2565b935050606061115988828901610fe7565b925050608086015167ffffffffffffffff81111561117a576111796109dd565b5b61118688828901611096565b9150509295509295909350565b60006040820190506111a86000830185610dcf565b6111b56020830184610d32565b9392505050565b60008115159050919050565b6111d1816111bc565b81146111dc57600080fd5b50565b6000815190506111ee816111c8565b92915050565b60006020828403121561120a576112096109d8565b5b6000611218848285016111df565b91505092915050565b7f4e6f2076616c696420656d706c6f796d656e742072656c6174696f6e7368697060008201527f20666f756e640000000000000000000000000000000000000000000000000000602082015250565b600061127d602683610d4c565b915061128882611221565b604082019050919050565b600060208201905081810360008301526112ac81611270565b9050919050565b7f526174696e67206d757374206265206265747765656e203120616e6420350000600082015250565b60006112e9601e83610d4c565b91506112f4826112b3565b602082019050919050565b60006020820190508181036000830152611318816112dc565b9050919050565b7f436f6d6d656e74732063616e6e6f7420626520656d7074790000000000000000600082015250565b6000611355601883610d4c565b91506113608261131f565b602082019050919050565b6000602082019050818103600083015261138481611348565b9050919050565b7f4e487b7100000000000000000000000000000000000000000000000000000000600052602260045260246000fd5b600060028204905060018216806113d257607f821691505b6020821081036113e5576113e461138b565b5b50919050565b60008190508160005260206000209050919050565b60006020601f8301049050919050565b600082821b905092915050565b60006008830261144d7fffffffffffffffffffffffffffffffffffffffffffffffffffffffffffffffff82611410565b6114578683611410565b95508019841693508086168417925050509392505050565b600061148a611485611480846109e2565b610c78565b6109e2565b9050919050565b6000819050919050565b6114a48361146f565b6114b86114b082611491565b84845461141d565b825550505050565b600090565b6114cd6114c0565b6114d881848461149b565b505050565b5b818110156114fc576114f16000826114c5565b6001810190506114de565b5050565b601f82111561154157611512816113eb565b61151b84611400565b8101602085101561152a578190505b61153e61153685611400565b8301826114dd565b50505b505050565b600082821c905092915050565b600061156460001984600802611546565b1980831691505092915050565b600061157d8383611553565b9150826002028217905092915050565b61159682610d41565b67ffffffffffffffff8111156115af576115ae610aca565b5b6115b982546113ba565b6115c4828285611500565b600060209050601f8311600181146115f757600084156115e5578287015190505b6115ef8582611571565b865550611657565b601f198416611605866113eb565b60005b8281101561162d57848901518255600182019150602085019450602081019050611608565b8683101561164a5784890151611646601f891682611553565b8355505b6001600288020188555050505b505050505050565b60006060820190506116746000830186610dc0565b81810360208301526116868185610d87565b90506116956040830184610dcf565b949350505050565b7f4e487b7100000000000000000000000000000000000000000000000000000000600052603260045260246000fdfea264697066735822122085e1ebd3397c4d013ed0774e73e49da7b5b93aebc4886e3b1629543ffe37b64064736f6c634300081b0033",
  "linkReferences": {},
  "deployedLinkReferences": {}
}