{
  "_format": "hh-sol-artifact-1",
  "contractName": "JobPlatform",
  "sourceName": "contracts/JobPlatform.sol",
  "abi": [
    {
      "inputs": [],
      "stateMutability": "nonpayable",
      "type": "constructor"
    },
    {
      "anonymous": false,
      "inputs": [
        {
          "indexed": true,
          "internalType": "uint256",
          "name": "jobId",
          "type": "uint256"
        },
        {
          "indexed": true,
          "internalType": "address",
          "name": "applicant",
          "type": "address"
        },
        {
          "indexed": false,
          "internalType": "uint256",
          "name": "amount",
          "type": "uint256"
        }
      ],
      "name": "ApplicationFeeReceived",
      "type": "event"
    },
    {
      "anonymous": false,
      "inputs": [
        {
          "indexed": false,
          "internalType": "uint256",
          "name": "jobId",
          "type": "uint256"
        },
        {
          "indexed": false,
          "internalType": "address",
          "name": "employer",
          "type": "address"
        }
      ],
      "name": "DebugJobPosted",
      "type": "event"
    },
    {
      "anonymous": false,
      "inputs": [
        {
          "indexed": true,
          "internalType": "address",
          "name": "employer",
          "type": "address"
        }
      ],
      "name": "EmployerAdded",
      "type": "event"
    },
    {
      "anonymous": false,
      "inputs": [
        {
          "indexed": true,
          "internalType": "address",
          "name": "employer",
          "type": "address"
        }
      ],
      "name": "EmployerRemoved",
      "type": "event"
    },
    {
      "anonymous": false,
      "inputs": [
        {
          "indexed": false,
          "internalType": "uint256",
          "name": "jobId",
          "type": "uint256"
        },
        {
          "indexed": true,
          "internalType": "address",
          "name": "applicant",
          "type": "address"
        }
      ],
      "name": "JobApplied",
      "type": "event"
    },
    {
      "anonymous": false,
      "inputs": [
        {
          "indexed": false,
          "internalType": "uint256",
          "name": "jobId",
          "type": "uint256"
        },
        {
          "indexed": true,
          "internalType": "address",
          "name": "employer",
          "type": "address"
        },
        {
          "indexed": false,
          "internalType": "string",
          "name": "title",
          "type": "string"
        }
      ],
      "name": "JobPosted",
      "type": "event"
    },
    {
      "anonymous": false,
      "inputs": [
        {
          "indexed": false,
          "internalType": "uint256",
          "name": "jobId",
          "type": "uint256"
        },
        {
          "indexed": true,
          "internalType": "address",
          "name": "employer",
          "type": "address"
        },
        {
          "indexed": true,
          "internalType": "address",
          "name": "applicant",
          "type": "address"
        }
      ],
      "name": "RequestApproved",
      "type": "event"
    },
    {
      "anonymous": false,
      "inputs": [
        {
          "indexed": false,
          "internalType": "uint256",
          "name": "jobId",
          "type": "uint256"
        },
        {
          "indexed": true,
          "internalType": "address",
          "name": "employer",
          "type": "address"
        },
        {
          "indexed": true,
          "internalType": "address",
          "name": "applicant",
          "type": "address"
        }
      ],
      "name": "RequestCreated",
      "type": "event"
    },
    {
      "anonymous": false,
      "inputs": [
        {
          "indexed": false,
          "internalType": "uint256",
          "name": "jobId",
          "type": "uint256"
        },
        {
          "indexed": true,
          "internalType": "address",
          "name": "employer",
          "type": "address"
        },
        {
          "indexed": true,
          "internalType": "address",
          "name": "applicant",
          "type": "address"
        }
      ],
      "name": "RequestRejected",
      "type": "event"
    },
    {
      "inputs": [
        {
          "internalType": "address",
          "name": "employer",
          "type": "address"
        }
      ],
      "name": "addEmployer",
      "outputs": [],
      "stateMutability": "nonpayable",
      "type": "function"
    },
    {
      "inputs": [],
      "name": "admin",
      "outputs": [
        {
          "internalType": "address",
          "name": "",
          "type": "address"
        }
      ],
      "stateMutability": "view",
      "type": "function"
    },
    {
      "inputs": [
        {
          "internalType": "uint256",
          "name": "",
          "type": "uint256"
        }
      ],
      "name": "allUsers",
      "outputs": [
        {
          "internalType": "address",
          "name": "",
          "type": "address"
        }
      ],
      "stateMutability": "view",
      "type": "function"
    },
    {
      "inputs": [
        {
          "internalType": "uint256",
          "name": "jobId",
          "type": "uint256"
        }
      ],
      "name": "applyForJob",
      "outputs": [],
      "stateMutability": "payable",
      "type": "function"
    },
    {
      "inputs": [
        {
          "internalType": "uint256",
          "name": "jobId",
          "type": "uint256"
        },
        {
          "internalType": "address",
          "name": "applicant",
          "type": "address"
        },
        {
          "internalType": "uint256",
          "name": "requestId",
          "type": "uint256"
        }
      ],
      "name": "approveRequest",
      "outputs": [],
      "stateMutability": "nonpayable",
      "type": "function"
    },
    {
      "inputs": [
        {
          "internalType": "address",
          "name": "",
          "type": "address"
        },
        {
          "internalType": "uint256",
          "name": "",
          "type": "uint256"
        }
      ],
      "name": "employerRequests",
      "outputs": [
        {
          "internalType": "uint256",
          "name": "jobId",
          "type": "uint256"
        },
        {
          "internalType": "address",
          "name": "applicant",
          "type": "address"
        },
        {
          "internalType": "bool",
          "name": "approved",
          "type": "bool"
        },
        {
          "internalType": "bool",
          "name": "rejected",
          "type": "bool"
        },
        {
          "internalType": "uint256",
          "name": "requestId",
          "type": "uint256"
        }
      ],
      "stateMutability": "view",
      "type": "function"
    },
    {
      "inputs": [
        {
          "internalType": "uint256",
          "name": "",
          "type": "uint256"
        }
      ],
      "name": "employers",
      "outputs": [
        {
          "internalType": "address",
          "name": "",
          "type": "address"
        }
      ],
      "stateMutability": "view",
      "type": "function"
    },
    {
      "inputs": [
        {
          "internalType": "uint256",
          "name": "jobId",
          "type": "uint256"
        },
        {
          "internalType": "address",
          "name": "employee",
          "type": "address"
        }
      ],
      "name": "fireEmployee",
      "outputs": [],
      "stateMutability": "nonpayable",
      "type": "function"
    },
    {
      "inputs": [],
      "name": "getAdminAddress",
      "outputs": [
        {
          "internalType": "address",
          "name": "",
          "type": "address"
        }
      ],
      "stateMutability": "view",
      "type": "function"
    },
    {
      "inputs": [],
      "name": "getAllEmployers",
      "outputs": [
        {
          "internalType": "address[]",
          "name": "",
          "type": "address[]"
        }
      ],
      "stateMutability": "view",
      "type": "function"
    },
    {
      "inputs": [],
      "name": "getAllUsers",
      "outputs": [
        {
          "internalType": "address[]",
          "name": "",
          "type": "address[]"
        }
      ],
      "stateMutability": "view",
      "type": "function"
    },
    {
      "inputs": [
        {
          "internalType": "uint256",
          "name": "jobId",
          "type": "uint256"
        }
      ],
      "name": "getApplicants",
      "outputs": [
        {
          "internalType": "address[]",
          "name": "",
          "type": "address[]"
        }
      ],
      "stateMutability": "view",
      "type": "function"
    },
    {
      "inputs": [
        {
          "internalType": "uint256",
          "name": "jobId",
          "type": "uint256"
        }
      ],
      "name": "getJob",
      "outputs": [
        {
          "internalType": "string",
          "name": "title",
          "type": "string"
        },
        {
          "internalType": "string",
          "name": "description",
          "type": "string"
        },
        {
          "internalType": "uint256",
          "name": "salary",
          "type": "uint256"
        },
        {
          "internalType": "address",
          "name": "employer",
          "type": "address"
        },
        {
          "internalType": "address[]",
          "name": "applicants",
          "type": "address[]"
        }
      ],
      "stateMutability": "view",
      "type": "function"
    },
    {
      "inputs": [],
      "name": "getJobCount",
      "outputs": [
        {
          "internalType": "uint256",
          "name": "",
          "type": "uint256"
        }
      ],
      "stateMutability": "view",
      "type": "function"
    },
    {
      "inputs": [
        {
          "internalType": "uint256",
          "name": "jobId",
          "type": "uint256"
        }
      ],
      "name": "getJobEmployer",
      "outputs": [
        {
          "internalType": "address",
          "name": "",
          "type": "address"
        }
      ],
      "stateMutability": "view",
      "type": "function"
    },
    {
      "inputs": [
        {
          "internalType": "address",
          "name": "employer",
          "type": "address"
        }
      ],
      "name": "getRequests",
      "outputs": [
        {
          "internalType": "uint256[]",
          "name": "jobIds",
          "type": "uint256[]"
        },
        {
          "internalType": "address[]",
          "name": "applicants",
          "type": "address[]"
        },
        {
          "internalType": "bool[]",
          "name": "approved",
          "type": "bool[]"
        },
        {
          "internalType": "bool[]",
          "name": "rejected",
          "type": "bool[]"
        }
      ],
      "stateMutability": "view",
      "type": "function"
    },
    {
      "inputs": [
        {
          "internalType": "address",
          "name": "",
          "type": "address"
        },
        {
          "internalType": "uint256",
          "name": "",
          "type": "uint256"
        }
      ],
      "name": "hasApplied",
      "outputs": [
        {
          "internalType": "bool",
          "name": "",
          "type": "bool"
        }
      ],
      "stateMutability": "view",
      "type": "function"
    },
    {
      "inputs": [
        {
          "internalType": "uint256",
          "name": "",
          "type": "uint256"
        },
        {
          "internalType": "address",
          "name": "",
          "type": "address"
        }
      ],
      "name": "isAcceptedEmployee",
      "outputs": [
        {
          "internalType": "bool",
          "name": "",
          "type": "bool"
        }
      ],
      "stateMutability": "view",
      "type": "function"
    },
    {
      "inputs": [
        {
          "internalType": "address",
          "name": "",
          "type": "address"
        }
      ],
      "name": "isEmployer",
      "outputs": [
        {
          "internalType": "bool",
          "name": "",
          "type": "bool"
        }
      ],
      "stateMutability": "view",
      "type": "function"
    },
    {
      "inputs": [
        {
          "internalType": "uint256",
          "name": "",
          "type": "uint256"
        },
        {
          "internalType": "address",
          "name": "",
          "type": "address"
        }
      ],
      "name": "isFired",
      "outputs": [
        {
          "internalType": "bool",
          "name": "",
          "type": "bool"
        }
      ],
      "stateMutability": "view",
      "type": "function"
    },
    {
      "inputs": [
        {
          "internalType": "address",
          "name": "user",
          "type": "address"
        }
      ],
      "name": "isRegistered",
      "outputs": [
        {
          "internalType": "bool",
          "name": "",
          "type": "bool"
        }
      ],
      "stateMutability": "view",
      "type": "function"
    },
    {
      "inputs": [
        {
          "internalType": "address",
          "name": "",
          "type": "address"
        }
      ],
      "name": "isUserRegistered",
      "outputs": [
        {
          "internalType": "bool",
          "name": "",
          "type": "bool"
        }
      ],
      "stateMutability": "view",
      "type": "function"
    },
    {
      "inputs": [],
      "name": "jobCount",
      "outputs": [
        {
          "internalType": "uint256",
          "name": "",
          "type": "uint256"
        }
      ],
      "stateMutability": "view",
      "type": "function"
    },
    {
      "inputs": [
        {
          "internalType": "uint256",
          "name": "",
          "type": "uint256"
        }
      ],
      "name": "jobs",
      "outputs": [
        {
          "internalType": "string",
          "name": "title",
          "type": "string"
        },
        {
          "internalType": "string",
          "name": "description",
          "type": "string"
        },
        {
          "internalType": "uint256",
          "name": "salary",
          "type": "uint256"
        },
        {
          "internalType": "address",
          "name": "employer",
          "type": "address"
        }
      ],
      "stateMutability": "view",
      "type": "function"
    },
    {
      "inputs": [
        {
          "internalType": "uint256",
          "name": "jobId",
          "type": "uint256"
        },
        {
          "internalType": "address",
          "name": "employee",
          "type": "address"
        }
      ],
      "name": "payEmployee",
      "outputs": [],
      "stateMutability": "payable",
      "type": "function"
    },
    {
      "inputs": [
        {
          "internalType": "string",
          "name": "title",
          "type": "string"
        },
        {
          "internalType": "string",
          "name": "description",
          "type": "string"
        },
        {
          "internalType": "uint256",
          "name": "salary",
          "type": "uint256"
        }
      ],
      "name": "postJob",
      "outputs": [],
      "stateMutability": "nonpayable",
      "type": "function"
    },
    {
      "inputs": [],
      "name": "registerUser",
      "outputs": [],
      "stateMutability": "nonpayable",
      "type": "function"
    },
    {
      "inputs": [
        {
          "internalType": "uint256",
          "name": "jobId",
          "type": "uint256"
        },
        {
          "internalType": "address",
          "name": "applicant",
          "type": "address"
        },
        {
          "internalType": "uint256",
          "name": "requestId",
          "type": "uint256"
        }
      ],
      "name": "rejectRequest",
      "outputs": [],
      "stateMutability": "nonpayable",
      "type": "function"
    },
    {
      "inputs": [
        {
          "internalType": "address",
          "name": "employer",
          "type": "address"
        }
      ],
      "name": "removeEmployer",
      "outputs": [],
      "stateMutability": "nonpayable",
      "type": "function"
    },
    {
      "stateMutability": "payable",
      "type": "receive"
    }
  ],
  "bytecode": "0x6080604052348015600f57600080fd5b5033600a60006101000a81548173ffffffffffffffffffffffffffffffffffffffff021916908373ffffffffffffffffffffffffffffffffffffffff160217905550614ff8806100606000396000f3fe6080604052600436106101c65760003560e01c806378097736116100f7578063bf22c45711610095578063e0c94ae511610064578063e0c94ae5146106e2578063e2842d79146106fe578063f3d092fb14610729578063f851a44014610752576101cd565b8063bf22c457146105fe578063c3c5a5471461063f578063cd81b43a1461067c578063e0825f51146106a5576101cd565b8063a2bdedf4116100d1578063a2bdedf414610542578063b02b4a2f1461057f578063b21dc9b8146105aa578063b2e6b912146105d3576101cd565b80637809773614610484578063804e44f3146104c15780638825518d14610501576101cd565b80634c5d8a0f116101645780635c3b9c4a1161013e5780635c3b9c4a146103cc57806368b54919146103f55780636cf5d86e1461041e5780637191b10a1461045b576101cd565b80634c5d8a0f1461036e5780634d3820eb146103995780634e8c7986146103b0576101cd565b8063180aedf3116101a0578063180aedf3146102775780632bc9cf5b146102b7578063417d6c99146102f45780634bb4530914610331576101cd565b8063066c4562146101d257806314c671d61461020f578063163f75221461023a576101cd565b366101cd57005b600080fd5b3480156101de57600080fd5b506101f960048036038101906101f4919061383d565b61077d565b60405161020691906138ab565b60405180910390f35b34801561021b57600080fd5b506102246107bc565b6040516102319190613984565b60405180910390f35b34801561024657600080fd5b50610261600480360381019061025c91906139d2565b61084a565b60405161026e9190613a1a565b60405180910390f35b34801561028357600080fd5b5061029e6004803603810190610299919061383d565b61086a565b6040516102ae9493929190613ad4565b60405180910390f35b3480156102c357600080fd5b506102de60048036038101906102d99190613b27565b6109ca565b6040516102eb9190613a1a565b60405180910390f35b34801561030057600080fd5b5061031b600480360381019061031691906139d2565b6109f9565b6040516103289190613a1a565b60405180910390f35b34801561033d57600080fd5b5061035860048036038101906103539190613b67565b610a19565b6040516103659190613a1a565b60405180910390f35b34801561037a57600080fd5b50610383610a48565b6040516103909190613ba7565b60405180910390f35b3480156103a557600080fd5b506103ae610a4e565b005b6103ca60048036038101906103c59190613b67565b610b98565b005b3480156103d857600080fd5b506103f360048036038101906103ee9190613cf7565b610e1b565b005b34801561040157600080fd5b5061041c600480360381019061041791906139d2565b6111a4565b005b34801561042a57600080fd5b506104456004803603810190610440919061383d565b6113c1565b6040516104529190613984565b60405180910390f35b34801561046757600080fd5b50610482600480360381019061047d91906139d2565b6114aa565b005b34801561049057600080fd5b506104ab60048036038101906104a69190613b67565b6117eb565b6040516104b89190613a1a565b60405180910390f35b3480156104cd57600080fd5b506104e860048036038101906104e391906139d2565b61181a565b6040516104f89493929190613efe565b60405180910390f35b34801561050d57600080fd5b5061052860048036038101906105239190613b27565b611ba8565b604051610539959493929190613f5f565b60405180910390f35b34801561054e57600080fd5b506105696004803603810190610564919061383d565b611c35565b60405161057691906138ab565b60405180910390f35b34801561058b57600080fd5b50610594611c74565b6040516105a19190613ba7565b60405180910390f35b3480156105b657600080fd5b506105d160048036038101906105cc9190613fb2565b611c7e565b005b3480156105df57600080fd5b506105e86121b6565b6040516105f591906138ab565b60405180910390f35b34801561060a57600080fd5b506106256004803603810190610620919061383d565b6121e0565b604051610636959493929190614005565b60405180910390f35b34801561064b57600080fd5b50610666600480360381019061066191906139d2565b61248e565b6040516106739190613a1a565b60405180910390f35b34801561068857600080fd5b506106a3600480360381019061069e9190613fb2565b6124e4565b005b3480156106b157600080fd5b506106cc60048036038101906106c7919061383d565b612a85565b6040516106d991906138ab565b60405180910390f35b6106fc60048036038101906106f7919061383d565b612b0a565b005b34801561070a57600080fd5b506107136131aa565b6040516107209190613984565b60405180910390f35b34801561073557600080fd5b50610750600480360381019061074b9190613b67565b6132c8565b005b34801561075e57600080fd5b50610767613726565b60405161077491906138ab565b60405180910390f35b6008818154811061078d57600080fd5b906000526020600020016000915054906101000a900473ffffffffffffffffffffffffffffffffffffffff1681565b6060600880548060200260200160405190810160405280929190818152602001828054801561084057602002820191906000526020600020905b8160009054906101000a900473ffffffffffffffffffffffffffffffffffffffff1673ffffffffffffffffffffffffffffffffffffffff16815260200190600101908083116107f6575b5050505050905090565b60046020528060005260406000206000915054906101000a900460ff1681565b600060205280600052604060002060009150905080600001805461088d9061409c565b80601f01602080910402602001604051908101604052809291908181526020018280546108b99061409c565b80156109065780601f106108db57610100808354040283529160200191610906565b820191906000526020600020905b8154815290600101906020018083116108e957829003601f168201915b50505050509080600101805461091b9061409c565b80601f01602080910402602001604051908101604052809291908181526020018280546109479061409c565b80156109945780601f1061096957610100808354040283529160200191610994565b820191906000526020600020905b81548152906001019060200180831161097757829003601f168201915b5050505050908060020154908060030160009054906101000a900473ffffffffffffffffffffffffffffffffffffffff16905084565b60026020528160005260406000206020528060005260406000206000915091509054906101000a900460ff1681565b60016020528060005260406000206000915054906101000a900460ff1681565b60056020528160005260406000206020528060005260406000206000915091509054906101000a900460ff1681565b60075481565b600460003373ffffffffffffffffffffffffffffffffffffffff1673ffffffffffffffffffffffffffffffffffffffff16815260200190815260200160002060009054906101000a900460ff1615610adb576040517f08c379a0000000000000000000000000000000000000000000000000000000008152600401610ad290614119565b60405180910390fd5b6001600460003373ffffffffffffffffffffffffffffffffffffffff1673ffffffffffffffffffffffffffffffffffffffff16815260200190815260200160002060006101000a81548160ff0219169083151502179055506009339080600181540180825580915050600190039060005260206000200160009091909190916101000a81548173ffffffffffffffffffffffffffffffffffffffff021916908373ffffffffffffffffffffffffffffffffffffffff160217905550565b816007548110610bdd576040517f08c379a0000000000000000000000000000000000000000000000000000000008152600401610bd490614185565b60405180910390fd5b600080600085815260200190815260200160002090508060030160009054906101000a900473ffffffffffffffffffffffffffffffffffffffff1673ffffffffffffffffffffffffffffffffffffffff163373ffffffffffffffffffffffffffffffffffffffff1614610c85576040517f08c379a0000000000000000000000000000000000000000000000000000000008152600401610c7c906141f1565b60405180910390fd5b6005600085815260200190815260200160002060008473ffffffffffffffffffffffffffffffffffffffff1673ffffffffffffffffffffffffffffffffffffffff16815260200190815260200160002060009054906101000a900460ff16610d22576040517f08c379a0000000000000000000000000000000000000000000000000000000008152600401610d1990614283565b60405180910390fd5b80600201543414610d68576040517f08c379a0000000000000000000000000000000000000000000000000000000008152600401610d5f906142ef565b60405180910390fd5b60008373ffffffffffffffffffffffffffffffffffffffff1634604051610d8e90614340565b60006040518083038185875af1925050503d8060008114610dcb576040519150601f19603f3d011682016040523d82523d6000602084013e610dd0565b606091505b5050905080610e14576040517f08c379a0000000000000000000000000000000000000000000000000000000008152600401610e0b906143a1565b60405180910390fd5b5050505050565b600160003373ffffffffffffffffffffffffffffffffffffffff1673ffffffffffffffffffffffffffffffffffffffff16815260200190815260200160002060009054906101000a900460ff16610ea7576040517f08c379a0000000000000000000000000000000000000000000000000000000008152600401610e9e90614433565b60405180910390fd5b600160003373ffffffffffffffffffffffffffffffffffffffff1673ffffffffffffffffffffffffffffffffffffffff16815260200190815260200160002060009054906101000a900460ff16610f33576040517f08c379a0000000000000000000000000000000000000000000000000000000008152600401610f2a90614433565b60405180910390fd5b6000835111610f77576040517f08c379a0000000000000000000000000000000000000000000000000000000008152600401610f6e9061449f565b60405180910390fd5b6000825111610fbb576040517f08c379a0000000000000000000000000000000000000000000000000000000008152600401610fb29061450b565b60405180910390fd5b60008111610ffe576040517f08c379a0000000000000000000000000000000000000000000000000000000008152600401610ff590614577565b60405180910390fd5b6040518060a001604052808481526020018381526020018281526020013373ffffffffffffffffffffffffffffffffffffffff168152602001600067ffffffffffffffff81111561105257611051613bcc565b5b6040519080825280602002602001820160405280156110805781602001602082028036833780820191505090505b50815250600080600754815260200190815260200160002060008201518160000190816110ad9190614743565b5060208201518160010190816110c39190614743565b506040820151816002015560608201518160030160006101000a81548173ffffffffffffffffffffffffffffffffffffffff021916908373ffffffffffffffffffffffffffffffffffffffff160217905550608082015181600401908051906020019061113192919061374c565b509050503373ffffffffffffffffffffffffffffffffffffffff167f874d4755e4be9f976c7833fc413deb77c1acbf096d6535b71953c36eb838cf406007548560405161117f929190614815565b60405180910390a26007600081548092919061119a90614874565b9190505550505050565b600a60009054906101000a900473ffffffffffffffffffffffffffffffffffffffff1673ffffffffffffffffffffffffffffffffffffffff163373ffffffffffffffffffffffffffffffffffffffff1614611234576040517f08c379a000000000000000000000000000000000000000000000000000000000815260040161122b90614908565b60405180910390fd5b600160008273ffffffffffffffffffffffffffffffffffffffff1673ffffffffffffffffffffffffffffffffffffffff16815260200190815260200160002060009054906101000a900460ff16156112c1576040517f08c379a00000000000000000000000000000000000000000000000000000000081526004016112b890614974565b60405180910390fd5b6008819080600181540180825580915050600190039060005260206000200160009091909190916101000a81548173ffffffffffffffffffffffffffffffffffffffff021916908373ffffffffffffffffffffffffffffffffffffffff16021790555060018060008373ffffffffffffffffffffffffffffffffffffffff1673ffffffffffffffffffffffffffffffffffffffff16815260200190815260200160002060006101000a81548160ff0219169083151502179055508073ffffffffffffffffffffffffffffffffffffffff167f5a8f2961260f818d9667b25560811fd29da53292f5479e674f27c6f0db898fd460405160405180910390a250565b6060816007548110611408576040517f08c379a00000000000000000000000000000000000000000000000000000000081526004016113ff90614185565b60405180910390fd5b60008084815260200190815260200160002060040180548060200260200160405190810160405280929190818152602001828054801561149d57602002820191906000526020600020905b8160009054906101000a900473ffffffffffffffffffffffffffffffffffffffff1673ffffffffffffffffffffffffffffffffffffffff1681526020019060010190808311611453575b5050505050915050919050565b600a60009054906101000a900473ffffffffffffffffffffffffffffffffffffffff1673ffffffffffffffffffffffffffffffffffffffff163373ffffffffffffffffffffffffffffffffffffffff161461153a576040517f08c379a000000000000000000000000000000000000000000000000000000000815260040161153190614908565b60405180910390fd5b600160008273ffffffffffffffffffffffffffffffffffffffff1673ffffffffffffffffffffffffffffffffffffffff16815260200190815260200160002060009054906101000a900460ff166115c6576040517f08c379a00000000000000000000000000000000000000000000000000000000081526004016115bd906149e0565b60405180910390fd5b6000600160008373ffffffffffffffffffffffffffffffffffffffff1673ffffffffffffffffffffffffffffffffffffffff16815260200190815260200160002060006101000a81548160ff02191690831515021790555060005b6008805490508110156117a4578173ffffffffffffffffffffffffffffffffffffffff166008828154811061165957611658614a00565b5b9060005260206000200160009054906101000a900473ffffffffffffffffffffffffffffffffffffffff1673ffffffffffffffffffffffffffffffffffffffff160361179757600860016008805490506116b39190614a2f565b815481106116c4576116c3614a00565b5b9060005260206000200160009054906101000a900473ffffffffffffffffffffffffffffffffffffffff166008828154811061170357611702614a00565b5b9060005260206000200160006101000a81548173ffffffffffffffffffffffffffffffffffffffff021916908373ffffffffffffffffffffffffffffffffffffffff160217905550600880548061175d5761175c614a63565b5b6001900381819060005260206000200160006101000a81549073ffffffffffffffffffffffffffffffffffffffff021916905590556117a4565b8080600101915050611621565b508073ffffffffffffffffffffffffffffffffffffffff167fba41c03c14e5c6511d4d0b64cbef2f6f35c915bd15aee993def2d0f34e4492ed60405160405180910390a250565b60066020528160005260406000206020528060005260406000206000915091509054906101000a900460ff1681565b606080606080600160008673ffffffffffffffffffffffffffffffffffffffff1673ffffffffffffffffffffffffffffffffffffffff16815260200190815260200160002060009054906101000a900460ff166118ac576040517f08c379a00000000000000000000000000000000000000000000000000000000081526004016118a390614ade565b60405180910390fd5b6000600360008773ffffffffffffffffffffffffffffffffffffffff1673ffffffffffffffffffffffffffffffffffffffff1681526020019081526020016000208054905090508067ffffffffffffffff81111561190d5761190c613bcc565b5b60405190808252806020026020018201604052801561193b5781602001602082028036833780820191505090505b5094508067ffffffffffffffff81111561195857611957613bcc565b5b6040519080825280602002602001820160405280156119865781602001602082028036833780820191505090505b5093508067ffffffffffffffff8111156119a3576119a2613bcc565b5b6040519080825280602002602001820160405280156119d15781602001602082028036833780820191505090505b5092508067ffffffffffffffff8111156119ee576119ed613bcc565b5b604051908082528060200260200182016040528015611a1c5781602001602082028036833780820191505090505b50915060005b81811015611b9f576000600360008973ffffffffffffffffffffffffffffffffffffffff1673ffffffffffffffffffffffffffffffffffffffff1681526020019081526020016000208281548110611a7d57611a7c614a00565b5b906000526020600020906003020190508060000154878381518110611aa557611aa4614a00565b5b6020026020010181815250508060010160009054906101000a900473ffffffffffffffffffffffffffffffffffffffff16868381518110611ae957611ae8614a00565b5b602002602001019073ffffffffffffffffffffffffffffffffffffffff16908173ffffffffffffffffffffffffffffffffffffffff16815250508060010160149054906101000a900460ff16858381518110611b4857611b47614a00565b5b6020026020010190151590811515815250508060010160159054906101000a900460ff16848381518110611b7f57611b7e614a00565b5b602002602001019015159081151581525050508080600101915050611a22565b50509193509193565b60036020528160005260406000208181548110611bc457600080fd5b9060005260206000209060030201600091509150508060000154908060010160009054906101000a900473ffffffffffffffffffffffffffffffffffffffff16908060010160149054906101000a900460ff16908060010160159054906101000a900460ff16908060020154905085565b60098181548110611c4557600080fd5b906000526020600020016000915054906101000a900473ffffffffffffffffffffffffffffffffffffffff1681565b6000600754905090565b60008060008581526020019081526020016000206040518060a0016040529081600082018054611cad9061409c565b80601f0160208091040260200160405190810160405280929190818152602001828054611cd99061409c565b8015611d265780601f10611cfb57610100808354040283529160200191611d26565b820191906000526020600020905b815481529060010190602001808311611d0957829003601f168201915b50505050508152602001600182018054611d3f9061409c565b80601f0160208091040260200160405190810160405280929190818152602001828054611d6b9061409c565b8015611db85780601f10611d8d57610100808354040283529160200191611db8565b820191906000526020600020905b815481529060010190602001808311611d9b57829003601f168201915b50505050508152602001600282015481526020016003820160009054906101000a900473ffffffffffffffffffffffffffffffffffffffff1673ffffffffffffffffffffffffffffffffffffffff1673ffffffffffffffffffffffffffffffffffffffff16815260200160048201805480602002602001604051908101604052809291908181526020018280548015611ea657602002820191906000526020600020905b8160009054906101000a900473ffffffffffffffffffffffffffffffffffffffff1673ffffffffffffffffffffffffffffffffffffffff1681526020019060010190808311611e5c575b5050505050815250509050806060015173ffffffffffffffffffffffffffffffffffffffff163373ffffffffffffffffffffffffffffffffffffffff1614611f23576040517f08c379a0000000000000000000000000000000000000000000000000000000008152600401611f1a90614b70565b60405180910390fd5b6000600360003373ffffffffffffffffffffffffffffffffffffffff1673ffffffffffffffffffffffffffffffffffffffff16815260200190815260200160002090506000805b828054905081101561216d5786838281548110611f8a57611f89614a00565b5b90600052602060002090600302016000015414801561201857508573ffffffffffffffffffffffffffffffffffffffff16838281548110611fce57611fcd614a00565b5b906000526020600020906003020160010160009054906101000a900473ffffffffffffffffffffffffffffffffffffffff1673ffffffffffffffffffffffffffffffffffffffff16145b801561204757508483828154811061203357612032614a00565b5b906000526020600020906003020160020154145b1561216057600183828154811061206157612060614a00565b5b906000526020600020906003020160010160156101000a81548160ff0219169083151502179055506000600260008873ffffffffffffffffffffffffffffffffffffffff1673ffffffffffffffffffffffffffffffffffffffff168152602001908152602001600020600089815260200190815260200160002060006101000a81548160ff0219169083151502179055508573ffffffffffffffffffffffffffffffffffffffff163373ffffffffffffffffffffffffffffffffffffffff167f0b7cdc900b8ac2bfb0d3b2139ecf8be43e21bb1c2e2380190243786c5c5bd3d38960405161214f9190613ba7565b60405180910390a36001915061216d565b8080600101915050611f6a565b50806121ae576040517f08c379a00000000000000000000000000000000000000000000000000000000081526004016121a590614c02565b60405180910390fd5b505050505050565b6000600a60009054906101000a900473ffffffffffffffffffffffffffffffffffffffff16905090565b606080600080606085600754811061222d576040517f08c379a000000000000000000000000000000000000000000000000000000000815260040161222490614185565b60405180910390fd5b60008060008981526020019081526020016000206040518060a001604052908160008201805461225c9061409c565b80601f01602080910402602001604051908101604052809291908181526020018280546122889061409c565b80156122d55780601f106122aa576101008083540402835291602001916122d5565b820191906000526020600020905b8154815290600101906020018083116122b857829003601f168201915b505050505081526020016001820180546122ee9061409c565b80601f016020809104026020016040519081016040528092919081815260200182805461231a9061409c565b80156123675780601f1061233c57610100808354040283529160200191612367565b820191906000526020600020905b81548152906001019060200180831161234a57829003601f168201915b50505050508152602001600282015481526020016003820160009054906101000a900473ffffffffffffffffffffffffffffffffffffffff1673ffffffffffffffffffffffffffffffffffffffff1673ffffffffffffffffffffffffffffffffffffffff1681526020016004820180548060200260200160405190810160405280929190818152602001828054801561245557602002820191906000526020600020905b8160009054906101000a900473ffffffffffffffffffffffffffffffffffffffff1673ffffffffffffffffffffffffffffffffffffffff168152602001906001019080831161240b575b50505050508152505090508060000151816020015182604001518360600151846080015196509650965096509650505091939590929450565b6000600460008373ffffffffffffffffffffffffffffffffffffffff1673ffffffffffffffffffffffffffffffffffffffff16815260200190815260200160002060009054906101000a900460ff169050919050565b60008060008581526020019081526020016000206040518060a00160405290816000820180546125139061409c565b80601f016020809104026020016040519081016040528092919081815260200182805461253f9061409c565b801561258c5780601f106125615761010080835404028352916020019161258c565b820191906000526020600020905b81548152906001019060200180831161256f57829003601f168201915b505050505081526020016001820180546125a59061409c565b80601f01602080910402602001604051908101604052809291908181526020018280546125d19061409c565b801561261e5780601f106125f35761010080835404028352916020019161261e565b820191906000526020600020905b81548152906001019060200180831161260157829003601f168201915b50505050508152602001600282015481526020016003820160009054906101000a900473ffffffffffffffffffffffffffffffffffffffff1673ffffffffffffffffffffffffffffffffffffffff1673ffffffffffffffffffffffffffffffffffffffff1681526020016004820180548060200260200160405190810160405280929190818152602001828054801561270c57602002820191906000526020600020905b8160009054906101000a900473ffffffffffffffffffffffffffffffffffffffff1673ffffffffffffffffffffffffffffffffffffffff16815260200190600101908083116126c2575b5050505050815250509050806060015173ffffffffffffffffffffffffffffffffffffffff163373ffffffffffffffffffffffffffffffffffffffff1614612789576040517f08c379a000000000000000000000000000000000000000000000000000000000815260040161278090614c94565b60405180910390fd5b6000600360003373ffffffffffffffffffffffffffffffffffffffff1673ffffffffffffffffffffffffffffffffffffffff16815260200190815260200160002090506000805b8280549050811015612a3c57868382815481106127f0576127ef614a00565b5b90600052602060002090600302016000015414801561287e57508573ffffffffffffffffffffffffffffffffffffffff1683828154811061283457612833614a00565b5b906000526020600020906003020160010160009054906101000a900473ffffffffffffffffffffffffffffffffffffffff1673ffffffffffffffffffffffffffffffffffffffff16145b80156128ad57508483828154811061289957612898614a00565b5b906000526020600020906003020160020154145b15612a2f5760018382815481106128c7576128c6614a00565b5b906000526020600020906003020160010160146101000a81548160ff02191690831515021790555060016005600089815260200190815260200160002060008873ffffffffffffffffffffffffffffffffffffffff1673ffffffffffffffffffffffffffffffffffffffff16815260200190815260200160002060006101000a81548160ff02191690831515021790555060006006600089815260200190815260200160002060008873ffffffffffffffffffffffffffffffffffffffff1673ffffffffffffffffffffffffffffffffffffffff16815260200190815260200160002060006101000a81548160ff0219169083151502179055508573ffffffffffffffffffffffffffffffffffffffff163373ffffffffffffffffffffffffffffffffffffffff167fc304de2ee997fd24fdfed24b05b8a4f183098cf2178adca7bd77238f65f84a2289604051612a1e9190613ba7565b60405180910390a360019150612a3c565b80806001019150506127d0565b5080612a7d576040517f08c379a0000000000000000000000000000000000000000000000000000000008152600401612a7490614c02565b60405180910390fd5b505050505050565b6000816007548110612acc576040517f08c379a0000000000000000000000000000000000000000000000000000000008152600401612ac390614185565b60405180910390fd5b60008084815260200190815260200160002060030160009054906101000a900473ffffffffffffffffffffffffffffffffffffffff16915050919050565b806007548110612b4f576040517f08c379a0000000000000000000000000000000000000000000000000000000008152600401612b4690614185565b60405180910390fd5b60008083815260200190815260200160002060030160009054906101000a900473ffffffffffffffffffffffffffffffffffffffff1673ffffffffffffffffffffffffffffffffffffffff163373ffffffffffffffffffffffffffffffffffffffff1603612bf2576040517f08c379a0000000000000000000000000000000000000000000000000000000008152600401612be990614d26565b60405180910390fd5b662386f26fc100003414612c3b576040517f08c379a0000000000000000000000000000000000000000000000000000000008152600401612c3290614db8565b60405180910390fd5b600260003373ffffffffffffffffffffffffffffffffffffffff1673ffffffffffffffffffffffffffffffffffffffff168152602001908152602001600020600083815260200190815260200160002060009054906101000a900460ff1615612cd9576040517f08c379a0000000000000000000000000000000000000000000000000000000008152600401612cd090614e4a565b60405180910390fd5b600060016003600080600087815260200190815260200160002060030160009054906101000a900473ffffffffffffffffffffffffffffffffffffffff1673ffffffffffffffffffffffffffffffffffffffff1673ffffffffffffffffffffffffffffffffffffffff16815260200190815260200160002080549050612d5f9190614e6a565b9050600080848152602001908152602001600020600401339080600181540180825580915050600190039060005260206000200160009091909190916101000a81548173ffffffffffffffffffffffffffffffffffffffff021916908373ffffffffffffffffffffffffffffffffffffffff1602179055506001600260003373ffffffffffffffffffffffffffffffffffffffff1673ffffffffffffffffffffffffffffffffffffffff168152602001908152602001600020600085815260200190815260200160002060006101000a81548160ff02191690831515021790555060006006600085815260200190815260200160002060003373ffffffffffffffffffffffffffffffffffffffff1673ffffffffffffffffffffffffffffffffffffffff16815260200190815260200160002060006101000a81548160ff021916908315150217905550600080600085815260200190815260200160002060030160009054906101000a900473ffffffffffffffffffffffffffffffffffffffff1673ffffffffffffffffffffffffffffffffffffffff1634604051612f0490614340565b60006040518083038185875af1925050503d8060008114612f41576040519150601f19603f3d011682016040523d82523d6000602084013e612f46565b606091505b5050905080612f8a576040517f08c379a0000000000000000000000000000000000000000000000000000000008152600401612f8190614f10565b60405180910390fd5b6003600080600087815260200190815260200160002060030160009054906101000a900473ffffffffffffffffffffffffffffffffffffffff1673ffffffffffffffffffffffffffffffffffffffff1673ffffffffffffffffffffffffffffffffffffffff1681526020019081526020016000206040518060a001604052808681526020013373ffffffffffffffffffffffffffffffffffffffff1681526020016000151581526020016000151581526020018481525090806001815401808255809150506001900390600052602060002090600302016000909190919091506000820151816000015560208201518160010160006101000a81548173ffffffffffffffffffffffffffffffffffffffff021916908373ffffffffffffffffffffffffffffffffffffffff16021790555060408201518160010160146101000a81548160ff02191690831515021790555060608201518160010160156101000a81548160ff0219169083151502179055506080820151816002015550503373ffffffffffffffffffffffffffffffffffffffff167fffa837d183240a5f25cbd643a8eade702c0c9c3e186c59c7d929e4f1a3438d868560405161314d9190613ba7565b60405180910390a23373ffffffffffffffffffffffffffffffffffffffff16847f673ad26bb807e9de75d3be14ca161f93784f6208d9f02b784e1b6a4490f5c6ab3460405161319c9190613ba7565b60405180910390a350505050565b6060600a60009054906101000a900473ffffffffffffffffffffffffffffffffffffffff1673ffffffffffffffffffffffffffffffffffffffff163373ffffffffffffffffffffffffffffffffffffffff161461323c576040517f08c379a000000000000000000000000000000000000000000000000000000000815260040161323390614908565b60405180910390fd5b60098054806020026020016040519081016040528092919081815260200182805480156132be57602002820191906000526020600020905b8160009054906101000a900473ffffffffffffffffffffffffffffffffffffffff1673ffffffffffffffffffffffffffffffffffffffff1681526020019060010190808311613274575b5050505050905090565b81600754811061330d576040517f08c379a000000000000000000000000000000000000000000000000000000000815260040161330490614185565b60405180910390fd5b600080600085815260200190815260200160002090508060030160009054906101000a900473ffffffffffffffffffffffffffffffffffffffff1673ffffffffffffffffffffffffffffffffffffffff163373ffffffffffffffffffffffffffffffffffffffff16146133b5576040517f08c379a00000000000000000000000000000000000000000000000000000000081526004016133ac90614fa2565b60405180910390fd5b6005600085815260200190815260200160002060008473ffffffffffffffffffffffffffffffffffffffff1673ffffffffffffffffffffffffffffffffffffffff16815260200190815260200160002060009054906101000a900460ff16613452576040517f08c379a000000000000000000000000000000000000000000000000000000000815260040161344990614283565b60405180910390fd5b60006005600086815260200190815260200160002060008573ffffffffffffffffffffffffffffffffffffffff1673ffffffffffffffffffffffffffffffffffffffff16815260200190815260200160002060006101000a81548160ff02191690831515021790555060016006600086815260200190815260200160002060008573ffffffffffffffffffffffffffffffffffffffff1673ffffffffffffffffffffffffffffffffffffffff16815260200190815260200160002060006101000a81548160ff0219169083151502179055506000600260008573ffffffffffffffffffffffffffffffffffffffff1673ffffffffffffffffffffffffffffffffffffffff168152602001908152602001600020600086815260200190815260200160002060006101000a81548160ff02191690831515021790555060005b816004018054905081101561371f578373ffffffffffffffffffffffffffffffffffffffff168260040182815481106135cc576135cb614a00565b5b9060005260206000200160009054906101000a900473ffffffffffffffffffffffffffffffffffffffff1673ffffffffffffffffffffffffffffffffffffffff160361371257816004016001836004018054905061362a9190614a2f565b8154811061363b5761363a614a00565b5b9060005260206000200160009054906101000a900473ffffffffffffffffffffffffffffffffffffffff1682600401828154811061367c5761367b614a00565b5b9060005260206000200160006101000a81548173ffffffffffffffffffffffffffffffffffffffff021916908373ffffffffffffffffffffffffffffffffffffffff160217905550816004018054806136d8576136d7614a63565b5b6001900381819060005260206000200160006101000a81549073ffffffffffffffffffffffffffffffffffffffff0219169055905561371f565b8080600101915050613590565b5050505050565b600a60009054906101000a900473ffffffffffffffffffffffffffffffffffffffff1681565b8280548282559060005260206000209081019282156137c5579160200282015b828111156137c45782518260006101000a81548173ffffffffffffffffffffffffffffffffffffffff021916908373ffffffffffffffffffffffffffffffffffffffff1602179055509160200191906001019061376c565b5b5090506137d291906137d6565b5090565b5b808211156137ef5760008160009055506001016137d7565b5090565b6000604051905090565b600080fd5b600080fd5b6000819050919050565b61381a81613807565b811461382557600080fd5b50565b60008135905061383781613811565b92915050565b600060208284031215613853576138526137fd565b5b600061386184828501613828565b91505092915050565b600073ffffffffffffffffffffffffffffffffffffffff82169050919050565b60006138958261386a565b9050919050565b6138a58161388a565b82525050565b60006020820190506138c0600083018461389c565b92915050565b600081519050919050565b600082825260208201905092915050565b6000819050602082019050919050565b6138fb8161388a565b82525050565b600061390d83836138f2565b60208301905092915050565b6000602082019050919050565b6000613931826138c6565b61393b81856138d1565b9350613946836138e2565b8060005b8381101561397757815161395e8882613901565b975061396983613919565b92505060018101905061394a565b5085935050505092915050565b6000602082019050818103600083015261399e8184613926565b905092915050565b6139af8161388a565b81146139ba57600080fd5b50565b6000813590506139cc816139a6565b92915050565b6000602082840312156139e8576139e76137fd565b5b60006139f6848285016139bd565b91505092915050565b60008115159050919050565b613a14816139ff565b82525050565b6000602082019050613a2f6000830184613a0b565b92915050565b600081519050919050565b600082825260208201905092915050565b60005b83811015613a6f578082015181840152602081019050613a54565b60008484015250505050565b6000601f19601f8301169050919050565b6000613a9782613a35565b613aa18185613a40565b9350613ab1818560208601613a51565b613aba81613a7b565b840191505092915050565b613ace81613807565b82525050565b60006080820190508181036000830152613aee8187613a8c565b90508181036020830152613b028186613a8c565b9050613b116040830185613ac5565b613b1e606083018461389c565b95945050505050565b60008060408385031215613b3e57613b3d6137fd565b5b6000613b4c858286016139bd565b9250506020613b5d85828601613828565b9150509250929050565b60008060408385031215613b7e57613b7d6137fd565b5b6000613b8c85828601613828565b9250506020613b9d858286016139bd565b9150509250929050565b6000602082019050613bbc6000830184613ac5565b92915050565b600080fd5b600080fd5b7f4e487b7100000000000000000000000000000000000000000000000000000000600052604160045260246000fd5b613c0482613a7b565b810181811067ffffffffffffffff82111715613c2357613c22613bcc565b5b80604052505050565b6000613c366137f3565b9050613c428282613bfb565b919050565b600067ffffffffffffffff821115613c6257613c61613bcc565b5b613c6b82613a7b565b9050602081019050919050565b82818337600083830152505050565b6000613c9a613c9584613c47565b613c2c565b905082815260208101848484011115613cb657613cb5613bc7565b5b613cc1848285613c78565b509392505050565b600082601f830112613cde57613cdd613bc2565b5b8135613cee848260208601613c87565b91505092915050565b600080600060608486031215613d1057613d0f6137fd565b5b600084013567ffffffffffffffff811115613d2e57613d2d613802565b5b613d3a86828701613cc9565b935050602084013567ffffffffffffffff811115613d5b57613d5a613802565b5b613d6786828701613cc9565b9250506040613d7886828701613828565b9150509250925092565b600081519050919050565b600082825260208201905092915050565b6000819050602082019050919050565b613db781613807565b82525050565b6000613dc98383613dae565b60208301905092915050565b6000602082019050919050565b6000613ded82613d82565b613df78185613d8d565b9350613e0283613d9e565b8060005b83811015613e33578151613e1a8882613dbd565b9750613e2583613dd5565b925050600181019050613e06565b5085935050505092915050565b600081519050919050565b600082825260208201905092915050565b6000819050602082019050919050565b613e75816139ff565b82525050565b6000613e878383613e6c565b60208301905092915050565b6000602082019050919050565b6000613eab82613e40565b613eb58185613e4b565b9350613ec083613e5c565b8060005b83811015613ef1578151613ed88882613e7b565b9750613ee383613e93565b925050600181019050613ec4565b5085935050505092915050565b60006080820190508181036000830152613f188187613de2565b90508181036020830152613f2c8186613926565b90508181036040830152613f408185613ea0565b90508181036060830152613f548184613ea0565b905095945050505050565b600060a082019050613f746000830188613ac5565b613f81602083018761389c565b613f8e6040830186613a0b565b613f9b6060830185613a0b565b613fa86080830184613ac5565b9695505050505050565b600080600060608486031215613fcb57613fca6137fd565b5b6000613fd986828701613828565b9350506020613fea868287016139bd565b9250506040613ffb86828701613828565b9150509250925092565b600060a082019050818103600083015261401f8188613a8c565b905081810360208301526140338187613a8c565b90506140426040830186613ac5565b61404f606083018561389c565b81810360808301526140618184613926565b90509695505050505050565b7f4e487b7100000000000000000000000000000000000000000000000000000000600052602260045260246000fd5b600060028204905060018216806140b457607f821691505b6020821081036140c7576140c661406d565b5b50919050565b7f596f752061726520616c72656164792072656769737465726564210000000000600082015250565b6000614103601b83613a40565b915061410e826140cd565b602082019050919050565b60006020820190508181036000830152614132816140f6565b9050919050565b7f4a6f6220646f6573206e6f742065786973742e00000000000000000000000000600082015250565b600061416f601383613a40565b915061417a82614139565b602082019050919050565b6000602082019050818103600083015261419e81614162565b9050919050565b7f4f6e6c7920656d706c6f7965722063616e2070617920656d706c6f796565732e600082015250565b60006141db602083613a40565b91506141e6826141a5565b602082019050919050565b6000602082019050818103600083015261420a816141ce565b9050919050565b7f456d706c6f79656520776173206e6f7420616363657074656420666f7220746860008201527f6973206a6f622e00000000000000000000000000000000000000000000000000602082015250565b600061426d602783613a40565b915061427882614211565b604082019050919050565b6000602082019050818103600083015261429c81614260565b9050919050565b7f496e636f72726563742073616c61727920616d6f756e742073656e742e000000600082015250565b60006142d9601d83613a40565b91506142e4826142a3565b602082019050919050565b60006020820190508181036000830152614308816142cc565b9050919050565b600081905092915050565b50565b600061432a60008361430f565b91506143358261431a565b600082019050919050565b600061434b8261431d565b9150819050919050565b7f4661696c656420746f2073656e642073616c6172792e00000000000000000000600082015250565b600061438b601683613a40565b915061439682614355565b602082019050919050565b600060208201905081810360008301526143ba8161437e565b9050919050565b7f43616c6c6572206973206e6f7420612076616c69646174656420656d706c6f7960008201527f6572000000000000000000000000000000000000000000000000000000000000602082015250565b600061441d602283613a40565b9150614428826143c1565b604082019050919050565b6000602082019050818103600083015261444c81614410565b9050919050565b7f5469746c652063616e6e6f7420626520656d7074790000000000000000000000600082015250565b6000614489601583613a40565b915061449482614453565b602082019050919050565b600060208201905081810360008301526144b88161447c565b9050919050565b7f4465736372697074696f6e2063616e6e6f7420626520656d7074790000000000600082015250565b60006144f5601b83613a40565b9150614500826144bf565b602082019050919050565b60006020820190508181036000830152614524816144e8565b9050919050565b7f53616c617279206d7573742062652067726561746572207468616e207a65726f600082015250565b6000614561602083613a40565b915061456c8261452b565b602082019050919050565b6000602082019050818103600083015261459081614554565b9050919050565b60008190508160005260206000209050919050565b60006020601f8301049050919050565b600082821b905092915050565b6000600883026145f97fffffffffffffffffffffffffffffffffffffffffffffffffffffffffffffffff826145bc565b61460386836145bc565b95508019841693508086168417925050509392505050565b6000819050919050565b600061464061463b61463684613807565b61461b565b613807565b9050919050565b6000819050919050565b61465a83614625565b61466e61466682614647565b8484546145c9565b825550505050565b600090565b614683614676565b61468e818484614651565b505050565b5b818110156146b2576146a760008261467b565b600181019050614694565b5050565b601f8211156146f7576146c881614597565b6146d1846145ac565b810160208510156146e0578190505b6146f46146ec856145ac565b830182614693565b50505b505050565b600082821c905092915050565b600061471a600019846008026146fc565b1980831691505092915050565b60006147338383614709565b9150826002028217905092915050565b61474c82613a35565b67ffffffffffffffff81111561476557614764613bcc565b5b61476f825461409c565b61477a8282856146b6565b600060209050601f8311600181146147ad576000841561479b578287015190505b6147a58582614727565b86555061480d565b601f1984166147bb86614597565b60005b828110156147e3578489015182556001820191506020850194506020810190506147be565b8683101561480057848901516147fc601f891682614709565b8355505b6001600288020188555050505b505050505050565b600060408201905061482a6000830185613ac5565b818103602083015261483c8184613a8c565b90509392505050565b7f4e487b7100000000000000000000000000000000000000000000000000000000600052601160045260246000fd5b600061487f82613807565b91507fffffffffffffffffffffffffffffffffffffffffffffffffffffffffffffffff82036148b1576148b0614845565b5b600182019050919050565b7f43616c6c6572206973206e6f74207468652061646d696e000000000000000000600082015250565b60006148f2601783613a40565b91506148fd826148bc565b602082019050919050565b60006020820190508181036000830152614921816148e5565b9050919050565b7f456d706c6f79657220697320616c72656164792076616c696461746564000000600082015250565b600061495e601d83613a40565b915061496982614928565b602082019050919050565b6000602082019050818103600083015261498d81614951565b9050919050565b7f456d706c6f796572206973206e6f742076616c69646174656400000000000000600082015250565b60006149ca601983613a40565b91506149d582614994565b602082019050919050565b600060208201905081810360008301526149f9816149bd565b9050919050565b7f4e487b7100000000000000000000000000000000000000000000000000000000600052603260045260246000fd5b6000614a3a82613807565b9150614a4583613807565b9250828203905081811115614a5d57614a5c614845565b5b92915050565b7f4e487b7100000000000000000000000000000000000000000000000000000000600052603160045260246000fd5b7f41646472657373206973206e6f7420612076616c696420656d706c6f79657200600082015250565b6000614ac8601f83613a40565b9150614ad382614a92565b602082019050919050565b60006020820190508181036000830152614af781614abb565b9050919050565b7f4f6e6c7920656d706c6f7965722063616e2072656a656374207265717565737460008201527f732e000000000000000000000000000000000000000000000000000000000000602082015250565b6000614b5a602283613a40565b9150614b6582614afe565b604082019050919050565b60006020820190508181036000830152614b8981614b4d565b9050919050565b7f52657175657374206e6f7420666f756e64206f7220616c72656164792070726f60008201527f6365737365642e00000000000000000000000000000000000000000000000000602082015250565b6000614bec602783613a40565b9150614bf782614b90565b604082019050919050565b60006020820190508181036000830152614c1b81614bdf565b9050919050565b7f4f6e6c7920656d706c6f7965722063616e20617070726f76652072657175657360008201527f74732e0000000000000000000000000000000000000000000000000000000000602082015250565b6000614c7e602383613a40565b9150614c8982614c22565b604082019050919050565b60006020820190508181036000830152614cad81614c71565b9050919050565b7f456d706c6f7965722063616e6e6f74206170706c7920746f207468656972206f60008201527f776e206a6f622e00000000000000000000000000000000000000000000000000602082015250565b6000614d10602783613a40565b9150614d1b82614cb4565b604082019050919050565b60006020820190508181036000830152614d3f81614d03565b9050919050565b7f4d696e696d756d206170706c69636174696f6e2066656520697320302e30312060008201527f4554480000000000000000000000000000000000000000000000000000000000602082015250565b6000614da2602383613a40565b9150614dad82614d46565b604082019050919050565b60006020820190508181036000830152614dd181614d95565b9050919050565b7f596f75206861766520616c7265616479206170706c69656420666f722074686960008201527f73206a6f622e0000000000000000000000000000000000000000000000000000602082015250565b6000614e34602683613a40565b9150614e3f82614dd8565b604082019050919050565b60006020820190508181036000830152614e6381614e27565b9050919050565b6000614e7582613807565b9150614e8083613807565b9250828201905080821115614e9857614e97614845565b5b92915050565b7f4661696c656420746f207472616e736665722045544820746f20656d706c6f7960008201527f6572000000000000000000000000000000000000000000000000000000000000602082015250565b6000614efa602283613a40565b9150614f0582614e9e565b604082019050919050565b60006020820190508181036000830152614f2981614eed565b9050919050565b7f4f6e6c7920656d706c6f7965722063616e206669726520656d706c6f7965657360008201527f2e00000000000000000000000000000000000000000000000000000000000000602082015250565b6000614f8c602183613a40565b9150614f9782614f30565b604082019050919050565b60006020820190508181036000830152614fbb81614f7f565b905091905056fea2646970667358221220336dbe63838e8f59e26fef5e2902d5267942ae309bc6293af2183e9904b758bb64736f6c634300081b0033",
  "linkReferences": {},
  "deployedLinkReferences": {}
}