{
  "_format": "hh-sol-artifact-1",
  "contractName": "JobPlatform",
  "sourceName": "contracts/JobPlatform.sol",
  "abi": [
    {
      "inputs": [],
      "stateMutability": "nonpayable",
      "type": "constructor"
    },
    {
      "anonymous": false,
      "inputs": [
        {
          "indexed": true,
          "internalType": "uint256",
          "name": "jobId",
          "type": "uint256"
        },
        {
          "indexed": true,
          "internalType": "address",
          "name": "applicant",
          "type": "address"
        },
        {
          "indexed": false,
          "internalType": "uint256",
          "name": "amount",
          "type": "uint256"
        }
      ],
      "name": "ApplicationFeeReceived",
      "type": "event"
    },
    {
      "anonymous": false,
      "inputs": [
        {
          "indexed": false,
          "internalType": "uint256",
          "name": "jobId",
          "type": "uint256"
        },
        {
          "indexed": false,
          "internalType": "address",
          "name": "employer",
          "type": "address"
        }
      ],
      "name": "DebugJobPosted",
      "type": "event"
    },
    {
      "anonymous": false,
      "inputs": [
        {
          "indexed": true,
          "internalType": "address",
          "name": "employer",
          "type": "address"
        }
      ],
      "name": "EmployerAdded",
      "type": "event"
    },
    {
      "anonymous": false,
      "inputs": [
        {
          "indexed": true,
          "internalType": "address",
          "name": "employer",
          "type": "address"
        }
      ],
      "name": "EmployerRemoved",
      "type": "event"
    },
    {
      "anonymous": false,
      "inputs": [
        {
          "indexed": false,
          "internalType": "uint256",
          "name": "jobId",
          "type": "uint256"
        },
        {
          "indexed": true,
          "internalType": "address",
          "name": "applicant",
          "type": "address"
        }
      ],
      "name": "JobApplied",
      "type": "event"
    },
    {
      "anonymous": false,
      "inputs": [
        {
          "indexed": false,
          "internalType": "uint256",
          "name": "jobId",
          "type": "uint256"
        },
        {
          "indexed": true,
          "internalType": "address",
          "name": "employer",
          "type": "address"
        },
        {
          "indexed": false,
          "internalType": "string",
          "name": "title",
          "type": "string"
        }
      ],
      "name": "JobPosted",
      "type": "event"
    },
    {
      "anonymous": false,
      "inputs": [
        {
          "indexed": false,
          "internalType": "uint256",
          "name": "jobId",
          "type": "uint256"
        },
        {
          "indexed": true,
          "internalType": "address",
          "name": "employer",
          "type": "address"
        },
        {
          "indexed": true,
          "internalType": "address",
          "name": "applicant",
          "type": "address"
        }
      ],
      "name": "RequestApproved",
      "type": "event"
    },
    {
      "anonymous": false,
      "inputs": [
        {
          "indexed": false,
          "internalType": "uint256",
          "name": "jobId",
          "type": "uint256"
        },
        {
          "indexed": true,
          "internalType": "address",
          "name": "employer",
          "type": "address"
        },
        {
          "indexed": true,
          "internalType": "address",
          "name": "applicant",
          "type": "address"
        }
      ],
      "name": "RequestCreated",
      "type": "event"
    },
    {
      "anonymous": false,
      "inputs": [
        {
          "indexed": false,
          "internalType": "uint256",
          "name": "jobId",
          "type": "uint256"
        },
        {
          "indexed": true,
          "internalType": "address",
          "name": "employer",
          "type": "address"
        },
        {
          "indexed": true,
          "internalType": "address",
          "name": "applicant",
          "type": "address"
        }
      ],
      "name": "RequestRejected",
      "type": "event"
    },
    {
      "inputs": [
        {
          "internalType": "address",
          "name": "employer",
          "type": "address"
        }
      ],
      "name": "addEmployer",
      "outputs": [],
      "stateMutability": "nonpayable",
      "type": "function"
    },
    {
      "inputs": [],
      "name": "admin",
      "outputs": [
        {
          "internalType": "address",
          "name": "",
          "type": "address"
        }
      ],
      "stateMutability": "view",
      "type": "function"
    },
    {
      "inputs": [
        {
          "internalType": "uint256",
          "name": "",
          "type": "uint256"
        }
      ],
      "name": "allUsers",
      "outputs": [
        {
          "internalType": "address",
          "name": "",
          "type": "address"
        }
      ],
      "stateMutability": "view",
      "type": "function"
    },
    {
      "inputs": [
        {
          "internalType": "uint256",
          "name": "jobId",
          "type": "uint256"
        }
      ],
      "name": "applyForJob",
      "outputs": [],
      "stateMutability": "payable",
      "type": "function"
    },
    {
      "inputs": [
        {
          "internalType": "uint256",
          "name": "jobId",
          "type": "uint256"
        },
        {
          "internalType": "address",
          "name": "applicant",
          "type": "address"
        },
        {
          "internalType": "uint256",
          "name": "requestId",
          "type": "uint256"
        }
      ],
      "name": "approveRequest",
      "outputs": [],
      "stateMutability": "nonpayable",
      "type": "function"
    },
    {
      "inputs": [
        {
          "internalType": "address",
          "name": "",
          "type": "address"
        },
        {
          "internalType": "uint256",
          "name": "",
          "type": "uint256"
        }
      ],
      "name": "employerRequests",
      "outputs": [
        {
          "internalType": "uint256",
          "name": "jobId",
          "type": "uint256"
        },
        {
          "internalType": "address",
          "name": "applicant",
          "type": "address"
        },
        {
          "internalType": "bool",
          "name": "approved",
          "type": "bool"
        },
        {
          "internalType": "bool",
          "name": "rejected",
          "type": "bool"
        },
        {
          "internalType": "uint256",
          "name": "requestId",
          "type": "uint256"
        }
      ],
      "stateMutability": "view",
      "type": "function"
    },
    {
      "inputs": [
        {
          "internalType": "uint256",
          "name": "",
          "type": "uint256"
        }
      ],
      "name": "employers",
      "outputs": [
        {
          "internalType": "address",
          "name": "",
          "type": "address"
        }
      ],
      "stateMutability": "view",
      "type": "function"
    },
    {
      "inputs": [
        {
          "internalType": "uint256",
          "name": "jobId",
          "type": "uint256"
        },
        {
          "internalType": "address",
          "name": "employee",
          "type": "address"
        }
      ],
      "name": "fireEmployee",
      "outputs": [],
      "stateMutability": "nonpayable",
      "type": "function"
    },
    {
      "inputs": [],
      "name": "getAdminAddress",
      "outputs": [
        {
          "internalType": "address",
          "name": "",
          "type": "address"
        }
      ],
      "stateMutability": "view",
      "type": "function"
    },
    {
      "inputs": [],
      "name": "getAllEmployers",
      "outputs": [
        {
          "internalType": "address[]",
          "name": "",
          "type": "address[]"
        }
      ],
      "stateMutability": "view",
      "type": "function"
    },
    {
      "inputs": [],
      "name": "getAllUsers",
      "outputs": [
        {
          "internalType": "address[]",
          "name": "",
          "type": "address[]"
        }
      ],
      "stateMutability": "view",
      "type": "function"
    },
    {
      "inputs": [
        {
          "internalType": "uint256",
          "name": "jobId",
          "type": "uint256"
        }
      ],
      "name": "getApplicants",
      "outputs": [
        {
          "internalType": "address[]",
          "name": "",
          "type": "address[]"
        }
      ],
      "stateMutability": "view",
      "type": "function"
    },
    {
      "inputs": [
        {
          "internalType": "uint256",
          "name": "jobId",
          "type": "uint256"
        }
      ],
      "name": "getJob",
      "outputs": [
        {
          "internalType": "string",
          "name": "title",
          "type": "string"
        },
        {
          "internalType": "string",
          "name": "description",
          "type": "string"
        },
        {
          "internalType": "uint256",
          "name": "salary",
          "type": "uint256"
        },
        {
          "internalType": "address",
          "name": "employer",
          "type": "address"
        },
        {
          "internalType": "address[]",
          "name": "applicants",
          "type": "address[]"
        }
      ],
      "stateMutability": "view",
      "type": "function"
    },
    {
      "inputs": [],
      "name": "getJobCount",
      "outputs": [
        {
          "internalType": "uint256",
          "name": "",
          "type": "uint256"
        }
      ],
      "stateMutability": "view",
      "type": "function"
    },
    {
      "inputs": [
        {
          "internalType": "uint256",
          "name": "jobId",
          "type": "uint256"
        }
      ],
      "name": "getJobEmployer",
      "outputs": [
        {
          "internalType": "address",
          "name": "",
          "type": "address"
        }
      ],
      "stateMutability": "view",
      "type": "function"
    },
    {
      "inputs": [
        {
          "internalType": "address",
          "name": "employer",
          "type": "address"
        }
      ],
      "name": "getRequests",
      "outputs": [
        {
          "internalType": "uint256[]",
          "name": "jobIds",
          "type": "uint256[]"
        },
        {
          "internalType": "address[]",
          "name": "applicants",
          "type": "address[]"
        },
        {
          "internalType": "bool[]",
          "name": "approved",
          "type": "bool[]"
        },
        {
          "internalType": "bool[]",
          "name": "rejected",
          "type": "bool[]"
        }
      ],
      "stateMutability": "view",
      "type": "function"
    },
    {
      "inputs": [
        {
          "internalType": "address",
          "name": "",
          "type": "address"
        },
        {
          "internalType": "uint256",
          "name": "",
          "type": "uint256"
        }
      ],
      "name": "hasApplied",
      "outputs": [
        {
          "internalType": "bool",
          "name": "",
          "type": "bool"
        }
      ],
      "stateMutability": "view",
      "type": "function"
    },
    {
      "inputs": [
        {
          "internalType": "uint256",
          "name": "",
          "type": "uint256"
        },
        {
          "internalType": "address",
          "name": "",
          "type": "address"
        }
      ],
      "name": "isAcceptedEmployee",
      "outputs": [
        {
          "internalType": "bool",
          "name": "",
          "type": "bool"
        }
      ],
      "stateMutability": "view",
      "type": "function"
    },
    {
      "inputs": [
        {
          "internalType": "address",
          "name": "",
          "type": "address"
        }
      ],
      "name": "isEmployer",
      "outputs": [
        {
          "internalType": "bool",
          "name": "",
          "type": "bool"
        }
      ],
      "stateMutability": "view",
      "type": "function"
    },
    {
      "inputs": [
        {
          "internalType": "uint256",
          "name": "",
          "type": "uint256"
        },
        {
          "internalType": "address",
          "name": "",
          "type": "address"
        }
      ],
      "name": "isFired",
      "outputs": [
        {
          "internalType": "bool",
          "name": "",
          "type": "bool"
        }
      ],
      "stateMutability": "view",
      "type": "function"
    },
    {
      "inputs": [
        {
          "internalType": "address",
          "name": "user",
          "type": "address"
        }
      ],
      "name": "isRegistered",
      "outputs": [
        {
          "internalType": "bool",
          "name": "",
          "type": "bool"
        }
      ],
      "stateMutability": "view",
      "type": "function"
    },
    {
      "inputs": [
        {
          "internalType": "address",
          "name": "",
          "type": "address"
        }
      ],
      "name": "isUserRegistered",
      "outputs": [
        {
          "internalType": "bool",
          "name": "",
          "type": "bool"
        }
      ],
      "stateMutability": "view",
      "type": "function"
    },
    {
      "inputs": [],
      "name": "jobCount",
      "outputs": [
        {
          "internalType": "uint256",
          "name": "",
          "type": "uint256"
        }
      ],
      "stateMutability": "view",
      "type": "function"
    },
    {
      "inputs": [
        {
          "internalType": "uint256",
          "name": "",
          "type": "uint256"
        }
      ],
      "name": "jobs",
      "outputs": [
        {
          "internalType": "string",
          "name": "title",
          "type": "string"
        },
        {
          "internalType": "string",
          "name": "description",
          "type": "string"
        },
        {
          "internalType": "uint256",
          "name": "salary",
          "type": "uint256"
        },
        {
          "internalType": "address",
          "name": "employer",
          "type": "address"
        }
      ],
      "stateMutability": "view",
      "type": "function"
    },
    {
      "inputs": [
        {
          "internalType": "uint256",
          "name": "jobId",
          "type": "uint256"
        },
        {
          "internalType": "address",
          "name": "employee",
          "type": "address"
        }
      ],
      "name": "payEmployee",
      "outputs": [],
      "stateMutability": "payable",
      "type": "function"
    },
    {
      "inputs": [
        {
          "internalType": "string",
          "name": "title",
          "type": "string"
        },
        {
          "internalType": "string",
          "name": "description",
          "type": "string"
        },
        {
          "internalType": "uint256",
          "name": "salary",
          "type": "uint256"
        }
      ],
      "name": "postJob",
      "outputs": [],
      "stateMutability": "nonpayable",
      "type": "function"
    },
    {
      "inputs": [],
      "name": "registerUser",
      "outputs": [],
      "stateMutability": "nonpayable",
      "type": "function"
    },
    {
      "inputs": [
        {
          "internalType": "uint256",
          "name": "jobId",
          "type": "uint256"
        },
        {
          "internalType": "address",
          "name": "applicant",
          "type": "address"
        },
        {
          "internalType": "uint256",
          "name": "requestId",
          "type": "uint256"
        }
      ],
      "name": "rejectRequest",
      "outputs": [],
      "stateMutability": "nonpayable",
      "type": "function"
    },
    {
      "inputs": [
        {
          "internalType": "address",
          "name": "employer",
          "type": "address"
        }
      ],
      "name": "removeEmployer",
      "outputs": [],
      "stateMutability": "nonpayable",
      "type": "function"
    },
    {
      "stateMutability": "payable",
      "type": "receive"
    }
  ],
  "bytecode": "0x6080604052348015600f57600080fd5b5033600a60006101000a81548173ffffffffffffffffffffffffffffffffffffffff021916908373ffffffffffffffffffffffffffffffffffffffff160217905550614f98806100606000396000f3fe6080604052600436106101c65760003560e01c806378097736116100f7578063bf22c45711610095578063e0c94ae511610064578063e0c94ae5146106e2578063e2842d79146106fe578063f3d092fb14610729578063f851a44014610752576101cd565b8063bf22c457146105fe578063c3c5a5471461063f578063cd81b43a1461067c578063e0825f51146106a5576101cd565b8063a2bdedf4116100d1578063a2bdedf414610542578063b02b4a2f1461057f578063b21dc9b8146105aa578063b2e6b912146105d3576101cd565b80637809773614610484578063804e44f3146104c15780638825518d14610501576101cd565b80634c5d8a0f116101645780635c3b9c4a1161013e5780635c3b9c4a146103cc57806368b54919146103f55780636cf5d86e1461041e5780637191b10a1461045b576101cd565b80634c5d8a0f1461036e5780634d3820eb146103995780634e8c7986146103b0576101cd565b8063180aedf3116101a0578063180aedf3146102775780632bc9cf5b146102b7578063417d6c99146102f45780634bb4530914610331576101cd565b8063066c4562146101d257806314c671d61461020f578063163f75221461023a576101cd565b366101cd57005b600080fd5b3480156101de57600080fd5b506101f960048036038101906101f491906137dd565b61077d565b604051610206919061384b565b60405180910390f35b34801561021b57600080fd5b506102246107bc565b6040516102319190613924565b60405180910390f35b34801561024657600080fd5b50610261600480360381019061025c9190613972565b61084a565b60405161026e91906139ba565b60405180910390f35b34801561028357600080fd5b5061029e600480360381019061029991906137dd565b61086a565b6040516102ae9493929190613a74565b60405180910390f35b3480156102c357600080fd5b506102de60048036038101906102d99190613ac7565b6109ca565b6040516102eb91906139ba565b60405180910390f35b34801561030057600080fd5b5061031b60048036038101906103169190613972565b6109f9565b60405161032891906139ba565b60405180910390f35b34801561033d57600080fd5b5061035860048036038101906103539190613b07565b610a19565b60405161036591906139ba565b60405180910390f35b34801561037a57600080fd5b50610383610a48565b6040516103909190613b47565b60405180910390f35b3480156103a557600080fd5b506103ae610a4e565b005b6103ca60048036038101906103c59190613b07565b610b98565b005b3480156103d857600080fd5b506103f360048036038101906103ee9190613c97565b610e1b565b005b34801561040157600080fd5b5061041c60048036038101906104179190613972565b6111a4565b005b34801561042a57600080fd5b50610445600480360381019061044091906137dd565b6113c1565b6040516104529190613924565b60405180910390f35b34801561046757600080fd5b50610482600480360381019061047d9190613972565b6114aa565b005b34801561049057600080fd5b506104ab60048036038101906104a69190613b07565b6117eb565b6040516104b891906139ba565b60405180910390f35b3480156104cd57600080fd5b506104e860048036038101906104e39190613972565b61181a565b6040516104f89493929190613e9e565b60405180910390f35b34801561050d57600080fd5b5061052860048036038101906105239190613ac7565b611ba8565b604051610539959493929190613eff565b60405180910390f35b34801561054e57600080fd5b50610569600480360381019061056491906137dd565b611c35565b604051610576919061384b565b60405180910390f35b34801561058b57600080fd5b50610594611c74565b6040516105a19190613b47565b60405180910390f35b3480156105b657600080fd5b506105d160048036038101906105cc9190613f52565b611c7e565b005b3480156105df57600080fd5b506105e86121b6565b6040516105f5919061384b565b60405180910390f35b34801561060a57600080fd5b50610625600480360381019061062091906137dd565b6121e0565b604051610636959493929190613fa5565b60405180910390f35b34801561064b57600080fd5b5061066660048036038101906106619190613972565b61242e565b60405161067391906139ba565b60405180910390f35b34801561068857600080fd5b506106a3600480360381019061069e9190613f52565b612484565b005b3480156106b157600080fd5b506106cc60048036038101906106c791906137dd565b612a25565b6040516106d9919061384b565b60405180910390f35b6106fc60048036038101906106f791906137dd565b612aaa565b005b34801561070a57600080fd5b5061071361314a565b6040516107209190613924565b60405180910390f35b34801561073557600080fd5b50610750600480360381019061074b9190613b07565b613268565b005b34801561075e57600080fd5b506107676136c6565b604051610774919061384b565b60405180910390f35b6008818154811061078d57600080fd5b906000526020600020016000915054906101000a900473ffffffffffffffffffffffffffffffffffffffff1681565b6060600880548060200260200160405190810160405280929190818152602001828054801561084057602002820191906000526020600020905b8160009054906101000a900473ffffffffffffffffffffffffffffffffffffffff1673ffffffffffffffffffffffffffffffffffffffff16815260200190600101908083116107f6575b5050505050905090565b60046020528060005260406000206000915054906101000a900460ff1681565b600060205280600052604060002060009150905080600001805461088d9061403c565b80601f01602080910402602001604051908101604052809291908181526020018280546108b99061403c565b80156109065780601f106108db57610100808354040283529160200191610906565b820191906000526020600020905b8154815290600101906020018083116108e957829003601f168201915b50505050509080600101805461091b9061403c565b80601f01602080910402602001604051908101604052809291908181526020018280546109479061403c565b80156109945780601f1061096957610100808354040283529160200191610994565b820191906000526020600020905b81548152906001019060200180831161097757829003601f168201915b5050505050908060020154908060030160009054906101000a900473ffffffffffffffffffffffffffffffffffffffff16905084565b60026020528160005260406000206020528060005260406000206000915091509054906101000a900460ff1681565b60016020528060005260406000206000915054906101000a900460ff1681565b60056020528160005260406000206020528060005260406000206000915091509054906101000a900460ff1681565b60075481565b600460003373ffffffffffffffffffffffffffffffffffffffff1673ffffffffffffffffffffffffffffffffffffffff16815260200190815260200160002060009054906101000a900460ff1615610adb576040517f08c379a0000000000000000000000000000000000000000000000000000000008152600401610ad2906140b9565b60405180910390fd5b6001600460003373ffffffffffffffffffffffffffffffffffffffff1673ffffffffffffffffffffffffffffffffffffffff16815260200190815260200160002060006101000a81548160ff0219169083151502179055506009339080600181540180825580915050600190039060005260206000200160009091909190916101000a81548173ffffffffffffffffffffffffffffffffffffffff021916908373ffffffffffffffffffffffffffffffffffffffff160217905550565b816007548110610bdd576040517f08c379a0000000000000000000000000000000000000000000000000000000008152600401610bd490614125565b60405180910390fd5b600080600085815260200190815260200160002090508060030160009054906101000a900473ffffffffffffffffffffffffffffffffffffffff1673ffffffffffffffffffffffffffffffffffffffff163373ffffffffffffffffffffffffffffffffffffffff1614610c85576040517f08c379a0000000000000000000000000000000000000000000000000000000008152600401610c7c90614191565b60405180910390fd5b6005600085815260200190815260200160002060008473ffffffffffffffffffffffffffffffffffffffff1673ffffffffffffffffffffffffffffffffffffffff16815260200190815260200160002060009054906101000a900460ff16610d22576040517f08c379a0000000000000000000000000000000000000000000000000000000008152600401610d1990614223565b60405180910390fd5b80600201543414610d68576040517f08c379a0000000000000000000000000000000000000000000000000000000008152600401610d5f9061428f565b60405180910390fd5b60008373ffffffffffffffffffffffffffffffffffffffff1634604051610d8e906142e0565b60006040518083038185875af1925050503d8060008114610dcb576040519150601f19603f3d011682016040523d82523d6000602084013e610dd0565b606091505b5050905080610e14576040517f08c379a0000000000000000000000000000000000000000000000000000000008152600401610e0b90614341565b60405180910390fd5b5050505050565b600160003373ffffffffffffffffffffffffffffffffffffffff1673ffffffffffffffffffffffffffffffffffffffff16815260200190815260200160002060009054906101000a900460ff16610ea7576040517f08c379a0000000000000000000000000000000000000000000000000000000008152600401610e9e906143d3565b60405180910390fd5b600160003373ffffffffffffffffffffffffffffffffffffffff1673ffffffffffffffffffffffffffffffffffffffff16815260200190815260200160002060009054906101000a900460ff16610f33576040517f08c379a0000000000000000000000000000000000000000000000000000000008152600401610f2a906143d3565b60405180910390fd5b6000835111610f77576040517f08c379a0000000000000000000000000000000000000000000000000000000008152600401610f6e9061443f565b60405180910390fd5b6000825111610fbb576040517f08c379a0000000000000000000000000000000000000000000000000000000008152600401610fb2906144ab565b60405180910390fd5b60008111610ffe576040517f08c379a0000000000000000000000000000000000000000000000000000000008152600401610ff590614517565b60405180910390fd5b6040518060a001604052808481526020018381526020018281526020013373ffffffffffffffffffffffffffffffffffffffff168152602001600067ffffffffffffffff81111561105257611051613b6c565b5b6040519080825280602002602001820160405280156110805781602001602082028036833780820191505090505b50815250600080600754815260200190815260200160002060008201518160000190816110ad91906146e3565b5060208201518160010190816110c391906146e3565b506040820151816002015560608201518160030160006101000a81548173ffffffffffffffffffffffffffffffffffffffff021916908373ffffffffffffffffffffffffffffffffffffffff16021790555060808201518160040190805190602001906111319291906136ec565b509050503373ffffffffffffffffffffffffffffffffffffffff167f874d4755e4be9f976c7833fc413deb77c1acbf096d6535b71953c36eb838cf406007548560405161117f9291906147b5565b60405180910390a26007600081548092919061119a90614814565b9190505550505050565b600a60009054906101000a900473ffffffffffffffffffffffffffffffffffffffff1673ffffffffffffffffffffffffffffffffffffffff163373ffffffffffffffffffffffffffffffffffffffff1614611234576040517f08c379a000000000000000000000000000000000000000000000000000000000815260040161122b906148a8565b60405180910390fd5b600160008273ffffffffffffffffffffffffffffffffffffffff1673ffffffffffffffffffffffffffffffffffffffff16815260200190815260200160002060009054906101000a900460ff16156112c1576040517f08c379a00000000000000000000000000000000000000000000000000000000081526004016112b890614914565b60405180910390fd5b6008819080600181540180825580915050600190039060005260206000200160009091909190916101000a81548173ffffffffffffffffffffffffffffffffffffffff021916908373ffffffffffffffffffffffffffffffffffffffff16021790555060018060008373ffffffffffffffffffffffffffffffffffffffff1673ffffffffffffffffffffffffffffffffffffffff16815260200190815260200160002060006101000a81548160ff0219169083151502179055508073ffffffffffffffffffffffffffffffffffffffff167f5a8f2961260f818d9667b25560811fd29da53292f5479e674f27c6f0db898fd460405160405180910390a250565b6060816007548110611408576040517f08c379a00000000000000000000000000000000000000000000000000000000081526004016113ff90614125565b60405180910390fd5b60008084815260200190815260200160002060040180548060200260200160405190810160405280929190818152602001828054801561149d57602002820191906000526020600020905b8160009054906101000a900473ffffffffffffffffffffffffffffffffffffffff1673ffffffffffffffffffffffffffffffffffffffff1681526020019060010190808311611453575b5050505050915050919050565b600a60009054906101000a900473ffffffffffffffffffffffffffffffffffffffff1673ffffffffffffffffffffffffffffffffffffffff163373ffffffffffffffffffffffffffffffffffffffff161461153a576040517f08c379a0000000000000000000000000000000000000000000000000000000008152600401611531906148a8565b60405180910390fd5b600160008273ffffffffffffffffffffffffffffffffffffffff1673ffffffffffffffffffffffffffffffffffffffff16815260200190815260200160002060009054906101000a900460ff166115c6576040517f08c379a00000000000000000000000000000000000000000000000000000000081526004016115bd90614980565b60405180910390fd5b6000600160008373ffffffffffffffffffffffffffffffffffffffff1673ffffffffffffffffffffffffffffffffffffffff16815260200190815260200160002060006101000a81548160ff02191690831515021790555060005b6008805490508110156117a4578173ffffffffffffffffffffffffffffffffffffffff1660088281548110611659576116586149a0565b5b9060005260206000200160009054906101000a900473ffffffffffffffffffffffffffffffffffffffff1673ffffffffffffffffffffffffffffffffffffffff160361179757600860016008805490506116b391906149cf565b815481106116c4576116c36149a0565b5b9060005260206000200160009054906101000a900473ffffffffffffffffffffffffffffffffffffffff1660088281548110611703576117026149a0565b5b9060005260206000200160006101000a81548173ffffffffffffffffffffffffffffffffffffffff021916908373ffffffffffffffffffffffffffffffffffffffff160217905550600880548061175d5761175c614a03565b5b6001900381819060005260206000200160006101000a81549073ffffffffffffffffffffffffffffffffffffffff021916905590556117a4565b8080600101915050611621565b508073ffffffffffffffffffffffffffffffffffffffff167fba41c03c14e5c6511d4d0b64cbef2f6f35c915bd15aee993def2d0f34e4492ed60405160405180910390a250565b60066020528160005260406000206020528060005260406000206000915091509054906101000a900460ff1681565b606080606080600160008673ffffffffffffffffffffffffffffffffffffffff1673ffffffffffffffffffffffffffffffffffffffff16815260200190815260200160002060009054906101000a900460ff166118ac576040517f08c379a00000000000000000000000000000000000000000000000000000000081526004016118a390614a7e565b60405180910390fd5b6000600360008773ffffffffffffffffffffffffffffffffffffffff1673ffffffffffffffffffffffffffffffffffffffff1681526020019081526020016000208054905090508067ffffffffffffffff81111561190d5761190c613b6c565b5b60405190808252806020026020018201604052801561193b5781602001602082028036833780820191505090505b5094508067ffffffffffffffff81111561195857611957613b6c565b5b6040519080825280602002602001820160405280156119865781602001602082028036833780820191505090505b5093508067ffffffffffffffff8111156119a3576119a2613b6c565b5b6040519080825280602002602001820160405280156119d15781602001602082028036833780820191505090505b5092508067ffffffffffffffff8111156119ee576119ed613b6c565b5b604051908082528060200260200182016040528015611a1c5781602001602082028036833780820191505090505b50915060005b81811015611b9f576000600360008973ffffffffffffffffffffffffffffffffffffffff1673ffffffffffffffffffffffffffffffffffffffff1681526020019081526020016000208281548110611a7d57611a7c6149a0565b5b906000526020600020906003020190508060000154878381518110611aa557611aa46149a0565b5b6020026020010181815250508060010160009054906101000a900473ffffffffffffffffffffffffffffffffffffffff16868381518110611ae957611ae86149a0565b5b602002602001019073ffffffffffffffffffffffffffffffffffffffff16908173ffffffffffffffffffffffffffffffffffffffff16815250508060010160149054906101000a900460ff16858381518110611b4857611b476149a0565b5b6020026020010190151590811515815250508060010160159054906101000a900460ff16848381518110611b7f57611b7e6149a0565b5b602002602001019015159081151581525050508080600101915050611a22565b50509193509193565b60036020528160005260406000208181548110611bc457600080fd5b9060005260206000209060030201600091509150508060000154908060010160009054906101000a900473ffffffffffffffffffffffffffffffffffffffff16908060010160149054906101000a900460ff16908060010160159054906101000a900460ff16908060020154905085565b60098181548110611c4557600080fd5b906000526020600020016000915054906101000a900473ffffffffffffffffffffffffffffffffffffffff1681565b6000600754905090565b60008060008581526020019081526020016000206040518060a0016040529081600082018054611cad9061403c565b80601f0160208091040260200160405190810160405280929190818152602001828054611cd99061403c565b8015611d265780601f10611cfb57610100808354040283529160200191611d26565b820191906000526020600020905b815481529060010190602001808311611d0957829003601f168201915b50505050508152602001600182018054611d3f9061403c565b80601f0160208091040260200160405190810160405280929190818152602001828054611d6b9061403c565b8015611db85780601f10611d8d57610100808354040283529160200191611db8565b820191906000526020600020905b815481529060010190602001808311611d9b57829003601f168201915b50505050508152602001600282015481526020016003820160009054906101000a900473ffffffffffffffffffffffffffffffffffffffff1673ffffffffffffffffffffffffffffffffffffffff1673ffffffffffffffffffffffffffffffffffffffff16815260200160048201805480602002602001604051908101604052809291908181526020018280548015611ea657602002820191906000526020600020905b8160009054906101000a900473ffffffffffffffffffffffffffffffffffffffff1673ffffffffffffffffffffffffffffffffffffffff1681526020019060010190808311611e5c575b5050505050815250509050806060015173ffffffffffffffffffffffffffffffffffffffff163373ffffffffffffffffffffffffffffffffffffffff1614611f23576040517f08c379a0000000000000000000000000000000000000000000000000000000008152600401611f1a90614b10565b60405180910390fd5b6000600360003373ffffffffffffffffffffffffffffffffffffffff1673ffffffffffffffffffffffffffffffffffffffff16815260200190815260200160002090506000805b828054905081101561216d5786838281548110611f8a57611f896149a0565b5b90600052602060002090600302016000015414801561201857508573ffffffffffffffffffffffffffffffffffffffff16838281548110611fce57611fcd6149a0565b5b906000526020600020906003020160010160009054906101000a900473ffffffffffffffffffffffffffffffffffffffff1673ffffffffffffffffffffffffffffffffffffffff16145b8015612047575084838281548110612033576120326149a0565b5b906000526020600020906003020160020154145b15612160576001838281548110612061576120606149a0565b5b906000526020600020906003020160010160156101000a81548160ff0219169083151502179055506000600260008873ffffffffffffffffffffffffffffffffffffffff1673ffffffffffffffffffffffffffffffffffffffff168152602001908152602001600020600089815260200190815260200160002060006101000a81548160ff0219169083151502179055508573ffffffffffffffffffffffffffffffffffffffff163373ffffffffffffffffffffffffffffffffffffffff167f0b7cdc900b8ac2bfb0d3b2139ecf8be43e21bb1c2e2380190243786c5c5bd3d38960405161214f9190613b47565b60405180910390a36001915061216d565b8080600101915050611f6a565b50806121ae576040517f08c379a00000000000000000000000000000000000000000000000000000000081526004016121a590614ba2565b60405180910390fd5b505050505050565b6000600a60009054906101000a900473ffffffffffffffffffffffffffffffffffffffff16905090565b606080600080606085600754811061222d576040517f08c379a000000000000000000000000000000000000000000000000000000000815260040161222490614125565b60405180910390fd5b60008060008981526020019081526020016000209050806000018160010182600201548360030160009054906101000a900473ffffffffffffffffffffffffffffffffffffffff16846004018480546122859061403c565b80601f01602080910402602001604051908101604052809291908181526020018280546122b19061403c565b80156122fe5780601f106122d3576101008083540402835291602001916122fe565b820191906000526020600020905b8154815290600101906020018083116122e157829003601f168201915b505050505094508380546123119061403c565b80601f016020809104026020016040519081016040528092919081815260200182805461233d9061403c565b801561238a5780601f1061235f5761010080835404028352916020019161238a565b820191906000526020600020905b81548152906001019060200180831161236d57829003601f168201915b505050505093508080548060200260200160405190810160405280929190818152602001828054801561241257602002820191906000526020600020905b8160009054906101000a900473ffffffffffffffffffffffffffffffffffffffff1673ffffffffffffffffffffffffffffffffffffffff16815260200190600101908083116123c8575b5050505050905096509650965096509650505091939590929450565b6000600460008373ffffffffffffffffffffffffffffffffffffffff1673ffffffffffffffffffffffffffffffffffffffff16815260200190815260200160002060009054906101000a900460ff169050919050565b60008060008581526020019081526020016000206040518060a00160405290816000820180546124b39061403c565b80601f01602080910402602001604051908101604052809291908181526020018280546124df9061403c565b801561252c5780601f106125015761010080835404028352916020019161252c565b820191906000526020600020905b81548152906001019060200180831161250f57829003601f168201915b505050505081526020016001820180546125459061403c565b80601f01602080910402602001604051908101604052809291908181526020018280546125719061403c565b80156125be5780601f10612593576101008083540402835291602001916125be565b820191906000526020600020905b8154815290600101906020018083116125a157829003601f168201915b50505050508152602001600282015481526020016003820160009054906101000a900473ffffffffffffffffffffffffffffffffffffffff1673ffffffffffffffffffffffffffffffffffffffff1673ffffffffffffffffffffffffffffffffffffffff168152602001600482018054806020026020016040519081016040528092919081815260200182805480156126ac57602002820191906000526020600020905b8160009054906101000a900473ffffffffffffffffffffffffffffffffffffffff1673ffffffffffffffffffffffffffffffffffffffff1681526020019060010190808311612662575b5050505050815250509050806060015173ffffffffffffffffffffffffffffffffffffffff163373ffffffffffffffffffffffffffffffffffffffff1614612729576040517f08c379a000000000000000000000000000000000000000000000000000000000815260040161272090614c34565b60405180910390fd5b6000600360003373ffffffffffffffffffffffffffffffffffffffff1673ffffffffffffffffffffffffffffffffffffffff16815260200190815260200160002090506000805b82805490508110156129dc57868382815481106127905761278f6149a0565b5b90600052602060002090600302016000015414801561281e57508573ffffffffffffffffffffffffffffffffffffffff168382815481106127d4576127d36149a0565b5b906000526020600020906003020160010160009054906101000a900473ffffffffffffffffffffffffffffffffffffffff1673ffffffffffffffffffffffffffffffffffffffff16145b801561284d575084838281548110612839576128386149a0565b5b906000526020600020906003020160020154145b156129cf576001838281548110612867576128666149a0565b5b906000526020600020906003020160010160146101000a81548160ff02191690831515021790555060016005600089815260200190815260200160002060008873ffffffffffffffffffffffffffffffffffffffff1673ffffffffffffffffffffffffffffffffffffffff16815260200190815260200160002060006101000a81548160ff02191690831515021790555060006006600089815260200190815260200160002060008873ffffffffffffffffffffffffffffffffffffffff1673ffffffffffffffffffffffffffffffffffffffff16815260200190815260200160002060006101000a81548160ff0219169083151502179055508573ffffffffffffffffffffffffffffffffffffffff163373ffffffffffffffffffffffffffffffffffffffff167fc304de2ee997fd24fdfed24b05b8a4f183098cf2178adca7bd77238f65f84a22896040516129be9190613b47565b60405180910390a3600191506129dc565b8080600101915050612770565b5080612a1d576040517f08c379a0000000000000000000000000000000000000000000000000000000008152600401612a1490614ba2565b60405180910390fd5b505050505050565b6000816007548110612a6c576040517f08c379a0000000000000000000000000000000000000000000000000000000008152600401612a6390614125565b60405180910390fd5b60008084815260200190815260200160002060030160009054906101000a900473ffffffffffffffffffffffffffffffffffffffff16915050919050565b806007548110612aef576040517f08c379a0000000000000000000000000000000000000000000000000000000008152600401612ae690614125565b60405180910390fd5b60008083815260200190815260200160002060030160009054906101000a900473ffffffffffffffffffffffffffffffffffffffff1673ffffffffffffffffffffffffffffffffffffffff163373ffffffffffffffffffffffffffffffffffffffff1603612b92576040517f08c379a0000000000000000000000000000000000000000000000000000000008152600401612b8990614cc6565b60405180910390fd5b662386f26fc100003414612bdb576040517f08c379a0000000000000000000000000000000000000000000000000000000008152600401612bd290614d58565b60405180910390fd5b600260003373ffffffffffffffffffffffffffffffffffffffff1673ffffffffffffffffffffffffffffffffffffffff168152602001908152602001600020600083815260200190815260200160002060009054906101000a900460ff1615612c79576040517f08c379a0000000000000000000000000000000000000000000000000000000008152600401612c7090614dea565b60405180910390fd5b600060016003600080600087815260200190815260200160002060030160009054906101000a900473ffffffffffffffffffffffffffffffffffffffff1673ffffffffffffffffffffffffffffffffffffffff1673ffffffffffffffffffffffffffffffffffffffff16815260200190815260200160002080549050612cff9190614e0a565b9050600080848152602001908152602001600020600401339080600181540180825580915050600190039060005260206000200160009091909190916101000a81548173ffffffffffffffffffffffffffffffffffffffff021916908373ffffffffffffffffffffffffffffffffffffffff1602179055506001600260003373ffffffffffffffffffffffffffffffffffffffff1673ffffffffffffffffffffffffffffffffffffffff168152602001908152602001600020600085815260200190815260200160002060006101000a81548160ff02191690831515021790555060006006600085815260200190815260200160002060003373ffffffffffffffffffffffffffffffffffffffff1673ffffffffffffffffffffffffffffffffffffffff16815260200190815260200160002060006101000a81548160ff021916908315150217905550600080600085815260200190815260200160002060030160009054906101000a900473ffffffffffffffffffffffffffffffffffffffff1673ffffffffffffffffffffffffffffffffffffffff1634604051612ea4906142e0565b60006040518083038185875af1925050503d8060008114612ee1576040519150601f19603f3d011682016040523d82523d6000602084013e612ee6565b606091505b5050905080612f2a576040517f08c379a0000000000000000000000000000000000000000000000000000000008152600401612f2190614eb0565b60405180910390fd5b6003600080600087815260200190815260200160002060030160009054906101000a900473ffffffffffffffffffffffffffffffffffffffff1673ffffffffffffffffffffffffffffffffffffffff1673ffffffffffffffffffffffffffffffffffffffff1681526020019081526020016000206040518060a001604052808681526020013373ffffffffffffffffffffffffffffffffffffffff1681526020016000151581526020016000151581526020018481525090806001815401808255809150506001900390600052602060002090600302016000909190919091506000820151816000015560208201518160010160006101000a81548173ffffffffffffffffffffffffffffffffffffffff021916908373ffffffffffffffffffffffffffffffffffffffff16021790555060408201518160010160146101000a81548160ff02191690831515021790555060608201518160010160156101000a81548160ff0219169083151502179055506080820151816002015550503373ffffffffffffffffffffffffffffffffffffffff167fffa837d183240a5f25cbd643a8eade702c0c9c3e186c59c7d929e4f1a3438d86856040516130ed9190613b47565b60405180910390a23373ffffffffffffffffffffffffffffffffffffffff16847f673ad26bb807e9de75d3be14ca161f93784f6208d9f02b784e1b6a4490f5c6ab3460405161313c9190613b47565b60405180910390a350505050565b6060600a60009054906101000a900473ffffffffffffffffffffffffffffffffffffffff1673ffffffffffffffffffffffffffffffffffffffff163373ffffffffffffffffffffffffffffffffffffffff16146131dc576040517f08c379a00000000000000000000000000000000000000000000000000000000081526004016131d3906148a8565b60405180910390fd5b600980548060200260200160405190810160405280929190818152602001828054801561325e57602002820191906000526020600020905b8160009054906101000a900473ffffffffffffffffffffffffffffffffffffffff1673ffffffffffffffffffffffffffffffffffffffff1681526020019060010190808311613214575b5050505050905090565b8160075481106132ad576040517f08c379a00000000000000000000000000000000000000000000000000000000081526004016132a490614125565b60405180910390fd5b600080600085815260200190815260200160002090508060030160009054906101000a900473ffffffffffffffffffffffffffffffffffffffff1673ffffffffffffffffffffffffffffffffffffffff163373ffffffffffffffffffffffffffffffffffffffff1614613355576040517f08c379a000000000000000000000000000000000000000000000000000000000815260040161334c90614f42565b60405180910390fd5b6005600085815260200190815260200160002060008473ffffffffffffffffffffffffffffffffffffffff1673ffffffffffffffffffffffffffffffffffffffff16815260200190815260200160002060009054906101000a900460ff166133f2576040517f08c379a00000000000000000000000000000000000000000000000000000000081526004016133e990614223565b60405180910390fd5b60006005600086815260200190815260200160002060008573ffffffffffffffffffffffffffffffffffffffff1673ffffffffffffffffffffffffffffffffffffffff16815260200190815260200160002060006101000a81548160ff02191690831515021790555060016006600086815260200190815260200160002060008573ffffffffffffffffffffffffffffffffffffffff1673ffffffffffffffffffffffffffffffffffffffff16815260200190815260200160002060006101000a81548160ff0219169083151502179055506000600260008573ffffffffffffffffffffffffffffffffffffffff1673ffffffffffffffffffffffffffffffffffffffff168152602001908152602001600020600086815260200190815260200160002060006101000a81548160ff02191690831515021790555060005b81600401805490508110156136bf578373ffffffffffffffffffffffffffffffffffffffff1682600401828154811061356c5761356b6149a0565b5b9060005260206000200160009054906101000a900473ffffffffffffffffffffffffffffffffffffffff1673ffffffffffffffffffffffffffffffffffffffff16036136b25781600401600183600401805490506135ca91906149cf565b815481106135db576135da6149a0565b5b9060005260206000200160009054906101000a900473ffffffffffffffffffffffffffffffffffffffff1682600401828154811061361c5761361b6149a0565b5b9060005260206000200160006101000a81548173ffffffffffffffffffffffffffffffffffffffff021916908373ffffffffffffffffffffffffffffffffffffffff1602179055508160040180548061367857613677614a03565b5b6001900381819060005260206000200160006101000a81549073ffffffffffffffffffffffffffffffffffffffff021916905590556136bf565b8080600101915050613530565b5050505050565b600a60009054906101000a900473ffffffffffffffffffffffffffffffffffffffff1681565b828054828255906000526020600020908101928215613765579160200282015b828111156137645782518260006101000a81548173ffffffffffffffffffffffffffffffffffffffff021916908373ffffffffffffffffffffffffffffffffffffffff1602179055509160200191906001019061370c565b5b5090506137729190613776565b5090565b5b8082111561378f576000816000905550600101613777565b5090565b6000604051905090565b600080fd5b600080fd5b6000819050919050565b6137ba816137a7565b81146137c557600080fd5b50565b6000813590506137d7816137b1565b92915050565b6000602082840312156137f3576137f261379d565b5b6000613801848285016137c8565b91505092915050565b600073ffffffffffffffffffffffffffffffffffffffff82169050919050565b60006138358261380a565b9050919050565b6138458161382a565b82525050565b6000602082019050613860600083018461383c565b92915050565b600081519050919050565b600082825260208201905092915050565b6000819050602082019050919050565b61389b8161382a565b82525050565b60006138ad8383613892565b60208301905092915050565b6000602082019050919050565b60006138d182613866565b6138db8185613871565b93506138e683613882565b8060005b838110156139175781516138fe88826138a1565b9750613909836138b9565b9250506001810190506138ea565b5085935050505092915050565b6000602082019050818103600083015261393e81846138c6565b905092915050565b61394f8161382a565b811461395a57600080fd5b50565b60008135905061396c81613946565b92915050565b6000602082840312156139885761398761379d565b5b60006139968482850161395d565b91505092915050565b60008115159050919050565b6139b48161399f565b82525050565b60006020820190506139cf60008301846139ab565b92915050565b600081519050919050565b600082825260208201905092915050565b60005b83811015613a0f5780820151818401526020810190506139f4565b60008484015250505050565b6000601f19601f8301169050919050565b6000613a37826139d5565b613a4181856139e0565b9350613a518185602086016139f1565b613a5a81613a1b565b840191505092915050565b613a6e816137a7565b82525050565b60006080820190508181036000830152613a8e8187613a2c565b90508181036020830152613aa28186613a2c565b9050613ab16040830185613a65565b613abe606083018461383c565b95945050505050565b60008060408385031215613ade57613add61379d565b5b6000613aec8582860161395d565b9250506020613afd858286016137c8565b9150509250929050565b60008060408385031215613b1e57613b1d61379d565b5b6000613b2c858286016137c8565b9250506020613b3d8582860161395d565b9150509250929050565b6000602082019050613b5c6000830184613a65565b92915050565b600080fd5b600080fd5b7f4e487b7100000000000000000000000000000000000000000000000000000000600052604160045260246000fd5b613ba482613a1b565b810181811067ffffffffffffffff82111715613bc357613bc2613b6c565b5b80604052505050565b6000613bd6613793565b9050613be28282613b9b565b919050565b600067ffffffffffffffff821115613c0257613c01613b6c565b5b613c0b82613a1b565b9050602081019050919050565b82818337600083830152505050565b6000613c3a613c3584613be7565b613bcc565b905082815260208101848484011115613c5657613c55613b67565b5b613c61848285613c18565b509392505050565b600082601f830112613c7e57613c7d613b62565b5b8135613c8e848260208601613c27565b91505092915050565b600080600060608486031215613cb057613caf61379d565b5b600084013567ffffffffffffffff811115613cce57613ccd6137a2565b5b613cda86828701613c69565b935050602084013567ffffffffffffffff811115613cfb57613cfa6137a2565b5b613d0786828701613c69565b9250506040613d18868287016137c8565b9150509250925092565b600081519050919050565b600082825260208201905092915050565b6000819050602082019050919050565b613d57816137a7565b82525050565b6000613d698383613d4e565b60208301905092915050565b6000602082019050919050565b6000613d8d82613d22565b613d978185613d2d565b9350613da283613d3e565b8060005b83811015613dd3578151613dba8882613d5d565b9750613dc583613d75565b925050600181019050613da6565b5085935050505092915050565b600081519050919050565b600082825260208201905092915050565b6000819050602082019050919050565b613e158161399f565b82525050565b6000613e278383613e0c565b60208301905092915050565b6000602082019050919050565b6000613e4b82613de0565b613e558185613deb565b9350613e6083613dfc565b8060005b83811015613e91578151613e788882613e1b565b9750613e8383613e33565b925050600181019050613e64565b5085935050505092915050565b60006080820190508181036000830152613eb88187613d82565b90508181036020830152613ecc81866138c6565b90508181036040830152613ee08185613e40565b90508181036060830152613ef48184613e40565b905095945050505050565b600060a082019050613f146000830188613a65565b613f21602083018761383c565b613f2e60408301866139ab565b613f3b60608301856139ab565b613f486080830184613a65565b9695505050505050565b600080600060608486031215613f6b57613f6a61379d565b5b6000613f79868287016137c8565b9350506020613f8a8682870161395d565b9250506040613f9b868287016137c8565b9150509250925092565b600060a0820190508181036000830152613fbf8188613a2c565b90508181036020830152613fd38187613a2c565b9050613fe26040830186613a65565b613fef606083018561383c565b818103608083015261400181846138c6565b90509695505050505050565b7f4e487b7100000000000000000000000000000000000000000000000000000000600052602260045260246000fd5b6000600282049050600182168061405457607f821691505b6020821081036140675761406661400d565b5b50919050565b7f596f752061726520616c72656164792072656769737465726564210000000000600082015250565b60006140a3601b836139e0565b91506140ae8261406d565b602082019050919050565b600060208201905081810360008301526140d281614096565b9050919050565b7f4a6f6220646f6573206e6f742065786973742e00000000000000000000000000600082015250565b600061410f6013836139e0565b915061411a826140d9565b602082019050919050565b6000602082019050818103600083015261413e81614102565b9050919050565b7f4f6e6c7920656d706c6f7965722063616e2070617920656d706c6f796565732e600082015250565b600061417b6020836139e0565b915061418682614145565b602082019050919050565b600060208201905081810360008301526141aa8161416e565b9050919050565b7f456d706c6f79656520776173206e6f7420616363657074656420666f7220746860008201527f6973206a6f622e00000000000000000000000000000000000000000000000000602082015250565b600061420d6027836139e0565b9150614218826141b1565b604082019050919050565b6000602082019050818103600083015261423c81614200565b9050919050565b7f496e636f72726563742073616c61727920616d6f756e742073656e742e000000600082015250565b6000614279601d836139e0565b915061428482614243565b602082019050919050565b600060208201905081810360008301526142a88161426c565b9050919050565b600081905092915050565b50565b60006142ca6000836142af565b91506142d5826142ba565b600082019050919050565b60006142eb826142bd565b9150819050919050565b7f4661696c656420746f2073656e642073616c6172792e00000000000000000000600082015250565b600061432b6016836139e0565b9150614336826142f5565b602082019050919050565b6000602082019050818103600083015261435a8161431e565b9050919050565b7f43616c6c6572206973206e6f7420612076616c69646174656420656d706c6f7960008201527f6572000000000000000000000000000000000000000000000000000000000000602082015250565b60006143bd6022836139e0565b91506143c882614361565b604082019050919050565b600060208201905081810360008301526143ec816143b0565b9050919050565b7f5469746c652063616e6e6f7420626520656d7074790000000000000000000000600082015250565b60006144296015836139e0565b9150614434826143f3565b602082019050919050565b600060208201905081810360008301526144588161441c565b9050919050565b7f4465736372697074696f6e2063616e6e6f7420626520656d7074790000000000600082015250565b6000614495601b836139e0565b91506144a08261445f565b602082019050919050565b600060208201905081810360008301526144c481614488565b9050919050565b7f53616c617279206d7573742062652067726561746572207468616e207a65726f600082015250565b60006145016020836139e0565b915061450c826144cb565b602082019050919050565b60006020820190508181036000830152614530816144f4565b9050919050565b60008190508160005260206000209050919050565b60006020601f8301049050919050565b600082821b905092915050565b6000600883026145997fffffffffffffffffffffffffffffffffffffffffffffffffffffffffffffffff8261455c565b6145a3868361455c565b95508019841693508086168417925050509392505050565b6000819050919050565b60006145e06145db6145d6846137a7565b6145bb565b6137a7565b9050919050565b6000819050919050565b6145fa836145c5565b61460e614606826145e7565b848454614569565b825550505050565b600090565b614623614616565b61462e8184846145f1565b505050565b5b818110156146525761464760008261461b565b600181019050614634565b5050565b601f8211156146975761466881614537565b6146718461454c565b81016020851015614680578190505b61469461468c8561454c565b830182614633565b50505b505050565b600082821c905092915050565b60006146ba6000198460080261469c565b1980831691505092915050565b60006146d383836146a9565b9150826002028217905092915050565b6146ec826139d5565b67ffffffffffffffff81111561470557614704613b6c565b5b61470f825461403c565b61471a828285614656565b600060209050601f83116001811461474d576000841561473b578287015190505b61474585826146c7565b8655506147ad565b601f19841661475b86614537565b60005b828110156147835784890151825560018201915060208501945060208101905061475e565b868310156147a0578489015161479c601f8916826146a9565b8355505b6001600288020188555050505b505050505050565b60006040820190506147ca6000830185613a65565b81810360208301526147dc8184613a2c565b90509392505050565b7f4e487b7100000000000000000000000000000000000000000000000000000000600052601160045260246000fd5b600061481f826137a7565b91507fffffffffffffffffffffffffffffffffffffffffffffffffffffffffffffffff8203614851576148506147e5565b5b600182019050919050565b7f43616c6c6572206973206e6f74207468652061646d696e000000000000000000600082015250565b60006148926017836139e0565b915061489d8261485c565b602082019050919050565b600060208201905081810360008301526148c181614885565b9050919050565b7f456d706c6f79657220697320616c72656164792076616c696461746564000000600082015250565b60006148fe601d836139e0565b9150614909826148c8565b602082019050919050565b6000602082019050818103600083015261492d816148f1565b9050919050565b7f456d706c6f796572206973206e6f742076616c69646174656400000000000000600082015250565b600061496a6019836139e0565b915061497582614934565b602082019050919050565b600060208201905081810360008301526149998161495d565b9050919050565b7f4e487b7100000000000000000000000000000000000000000000000000000000600052603260045260246000fd5b60006149da826137a7565b91506149e5836137a7565b92508282039050818111156149fd576149fc6147e5565b5b92915050565b7f4e487b7100000000000000000000000000000000000000000000000000000000600052603160045260246000fd5b7f41646472657373206973206e6f7420612076616c696420656d706c6f79657200600082015250565b6000614a68601f836139e0565b9150614a7382614a32565b602082019050919050565b60006020820190508181036000830152614a9781614a5b565b9050919050565b7f4f6e6c7920656d706c6f7965722063616e2072656a656374207265717565737460008201527f732e000000000000000000000000000000000000000000000000000000000000602082015250565b6000614afa6022836139e0565b9150614b0582614a9e565b604082019050919050565b60006020820190508181036000830152614b2981614aed565b9050919050565b7f52657175657374206e6f7420666f756e64206f7220616c72656164792070726f60008201527f6365737365642e00000000000000000000000000000000000000000000000000602082015250565b6000614b8c6027836139e0565b9150614b9782614b30565b604082019050919050565b60006020820190508181036000830152614bbb81614b7f565b9050919050565b7f4f6e6c7920656d706c6f7965722063616e20617070726f76652072657175657360008201527f74732e0000000000000000000000000000000000000000000000000000000000602082015250565b6000614c1e6023836139e0565b9150614c2982614bc2565b604082019050919050565b60006020820190508181036000830152614c4d81614c11565b9050919050565b7f456d706c6f7965722063616e6e6f74206170706c7920746f207468656972206f60008201527f776e206a6f622e00000000000000000000000000000000000000000000000000602082015250565b6000614cb06027836139e0565b9150614cbb82614c54565b604082019050919050565b60006020820190508181036000830152614cdf81614ca3565b9050919050565b7f4d696e696d756d206170706c69636174696f6e2066656520697320302e30312060008201527f4554480000000000000000000000000000000000000000000000000000000000602082015250565b6000614d426023836139e0565b9150614d4d82614ce6565b604082019050919050565b60006020820190508181036000830152614d7181614d35565b9050919050565b7f596f75206861766520616c7265616479206170706c69656420666f722074686960008201527f73206a6f622e0000000000000000000000000000000000000000000000000000602082015250565b6000614dd46026836139e0565b9150614ddf82614d78565b604082019050919050565b60006020820190508181036000830152614e0381614dc7565b9050919050565b6000614e15826137a7565b9150614e20836137a7565b9250828201905080821115614e3857614e376147e5565b5b92915050565b7f4661696c656420746f207472616e736665722045544820746f20656d706c6f7960008201527f6572000000000000000000000000000000000000000000000000000000000000602082015250565b6000614e9a6022836139e0565b9150614ea582614e3e565b604082019050919050565b60006020820190508181036000830152614ec981614e8d565b9050919050565b7f4f6e6c7920656d706c6f7965722063616e206669726520656d706c6f7965657360008201527f2e00000000000000000000000000000000000000000000000000000000000000602082015250565b6000614f2c6021836139e0565b9150614f3782614ed0565b604082019050919050565b60006020820190508181036000830152614f5b81614f1f565b905091905056fea2646970667358221220222c2ac47bb970fc16dc86fa0c684551328fa349fe805b3fe01952496c52d28064736f6c634300081b0033",
  "linkReferences": {},
  "deployedLinkReferences": {}
}